:100000000C9463000C948B000C948B000C94F802FD
:100010000C94F8020C94F8020C948B000C948B0056
:100020000C948B000C948B000C948B000C948B0024
:100030000C948B000C948B000C948B000C948B0014
:100040000C9456020C948B000C94C6020C94A002E3
:100050000C948B000C948B000C948B000C948B00F4
:100060000C948B000C948B0000000008000201002F
:100070000003040700000000000000000000000072
:1000800023002600290000000000240027002A0089
:1000900000000000250028002B00040404040404D0
:1000A0000404020202020202030303030303010227
:1000B00004081020408001020408102001020408F6
:1000C0001020BC03520911241FBECFEFD8E0DEBFC1
:1000D000CDBF11E0A0E0B1E0E4ECF8E102C0059092
:1000E0000D92AA3AB107D9F723E0AAEAB1E001C01C
:1000F0001D92A032B207E1F710E0C2E6D0E004C0E2
:100100002197FE010E94750AC136D107C9F70E94E6
:10011000A5040C94550C0C940000AF92BF92CF92A2
:10012000DF92EF92FF920F931F93CF93DF936C01B7
:100130007B018B01040F151FEB015E01AE18BF0898
:10014000C017D10759F06991D601ED91FC9101904A
:10015000F081E02DC6010995892B79F7C501DF9162
:10016000CF911F910F91FF90EF90DF90CF90BF90B4
:10017000AF900895FC01538D448D252F30E0842FDE
:1001800090E0821B930B541710F0CF9608950197BF
:100190000895FC01918D828D981761F0A28DAE0FAC
:1001A000BF2FB11D5D968C91928D9F5F9F73928F33
:1001B00090E008958FEF9FEF0895FC01918D828D5F
:1001C000981731F0828DE80FF11D858D90E008952C
:1001D0008FEF9FEF0895FC01918D228D892F90E084
:1001E000805C9F4F821B91098F739927089584E645
:1001F00092E00E94EB0021E0892B09F420E0822F9D
:10020000089580E090E0892B29F00E94F700811189
:100210000C9400000895FC01A48DA80FB92FB11D06
:10022000A35ABF4F2C91848D90E001968F7399272C
:10023000848FA689B7892C93A089B1898C9183700A
:1002400080648C93938D848D981306C00288F38903
:10025000E02D80818F7D80830895EF92FF920F9330
:100260001F93CF93DF93EC0181E0888F9B8D8C8D62
:1002700098131AC0E889F989808185FF15C09FB756
:10028000F894EE89FF896083E889F9898081837019
:10029000806480839FBF81E090E0DF91CF911F91C8
:1002A0000F91FF90EF900895F62E0B8D10E00F5FE9
:1002B0001F4F0F731127E02E8C8D8E110CC00FB6BF
:1002C00007FCFACFE889F989808185FFF5CFCE0157
:1002D0000E940B01F1CFEB8DEC0FFD2FF11DE35AC6
:1002E000FF4FF0829FB7F8940B8FEA89FB898081DA
:1002F0008062CFCFCF93DF93EC01888D8823B9F054
:10030000AA89BB89E889F9898C9185FD03C0808120
:1003100086FD0DC00FB607FCF7CF8C9185FFF2CF9D
:10032000808185FFEDCFCE010E940B01E9CFDF91E7
:10033000CF9108952091EC013091ED0128173907F4
:1003400071F49091EA018091EB01981741F0E091EE
:10035000EA01F0E0E655FE4F808190E008958FEFCE
:100360009FEF08950895EF92FF920F931F93CF93FD
:10037000DF93DC015C96ED90FC905D97E114F10455
:1003800079F481E090E013969C938E93129790E01D
:1003900080E0DF91CF911F910F91FF90EF90089532
:1003A0005196ED91FC91529750968C915097982FC1
:1003B00090950FB75E962C915E97122F127021FDCB
:1003C0006095F8942081112319F1282B2083E701EF
:1003D0002197F1F728E0462F50E0308160FF1AC0E6
:1003E000382B3083E7012197F1F7BA0175956795AE
:1003F000215089F7112381F08081892380830FBFE9
:100400005C968D919C910197F1F781E090E0C1CFCE
:100410002923DCCF3923E5CF9081892BEFCF2091A1
:10042000EC013091ED012817390761F48091EB015F
:100430002091EA0190E0805C9F4F821B91098F73AD
:100440009927089590E080E008952091EC01309183
:10045000ED0128173907B9F49091EA018091EB0179
:10046000981789F0E091EA01F0E0E655FE4F8081AF
:100470002091EA0130E02F5F3F4F2F733327209305
:10048000EA0190E008958FEF9FEF089590E080E0FB
:100490000895FC0101900020E9F73197AF01481B56
:1004A000590BBC0184E692E00C948D001F920F92D0
:1004B0000FB60F9211242F933F938F939F93AF9377
:1004C000BF938091600290916102A0916202B0910D
:1004D000630230915F0223E0230F2D3758F5019618
:1004E000A11DB11D20935F02809360029093610271
:1004F000A0936202B093630280915B0290915C02D0
:10050000A0915D02B0915E020196A11DB11D809384
:100510005B0290935C02A0935D02B0935E02BF9178
:10052000AF919F918F913F912F910F900FBE0F90A0
:100530001F90189526E8230F0296A11DB11DD2CF5A
:100540001F920F920FB60F9211242F933F934F9348
:100550005F936F937F938F939F93AF93BF93EF932B
:10056000FF9384E692E00E940B01FF91EF91BF910F
:10057000AF919F918F917F916F915F914F913F913B
:100580002F910F900FBE0F901F9018951F920F92F2
:100590000FB60F9211242F938F939F93EF93FF9396
:1005A000E0917402F09175028081E0917A02F091FD
:1005B0007B0282FD1BC0908180917D028F5F8F73D3
:1005C00020917E02821741F0E0917D02F0E0EC592B
:1005D000FD4F958F80937D02FF91EF919F918F91B9
:1005E0002F910F900FBE0F901F9018958081F4CF20
:1005F0001F920F920FB60F9211242F933F934F9398
:100600005F936F937F938F939F93AF93BF93EF937A
:10061000FF93E091EC01F091ED01309749F0A68550
:10062000B7858585968D91FF14C09C918923A1F48F
:10063000FF91EF91BF91AF919F918F917F916F91BA
:100640005F914F913F912F910F900FBE0F901F9090
:1006500018959C91892361F7A389B4899C91858918
:10066000809589238C93868997890197F1F7608D0E
:10067000718DA685B785558538E020E0CB010197BF
:10068000F1F7822F90E095958795282F4C9145237F
:1006900009F02068315091F7868D81FD2095809179
:1006A000EB0190E001968F7399273091EA0138179A
:1006B00099F0A091EB01B0E0A655BE4F2C9380932A
:1006C000EB01828D938D0197F1F7A389B4898C9109
:1006D0009589892B8C93ACCF868D8160868FF1CFE5
:1006E00090E0FC01E859FF4F2491FC01E255FF4FD7
:1006F0003491FC01E656FF4FE491EE23C9F022232A
:1007000039F0233001F1A8F4213019F1223029F118
:10071000F0E0EE0FFF1FE057FF4FA591B4918FB7A8
:10072000F894EC91611126C030953E233C938FBF25
:1007300008952730A9F02830C9F0243049F7809176
:1007400080008F7D03C0809180008F778093800030
:10075000DFCF84B58F7784BDDBCF84B58F7DFBCFB2
:100760008091B0008F778093B000D2CF8091B0009D
:100770008F7DF9CF3E2BDACF0F931F93CF93DF936B
:10078000109267021092660288EE93E0A0E0B0E05B
:100790008093680290936902A0936A02B0936B02FF
:1007A00028E031E0309365022093640225EC30E0CC
:1007B000309371022093700224EC30E03093730286
:1007C0002093720220EC30E0309375022093740283
:1007D00021EC30E0309377022093760222EC30E077
:1007E000309379022093780226EC30E030937B023C
:1007F00020937A0210927D0210927E0210927F0264
:100800001092800210920403109203038093050358
:1008100090930603A0930703B09308038AE191E045
:100820009093020380930103109218031092170310
:1008300010921A031092190310921C0310921B03BA
:1008400010921E0310921D0360911F036E7F6D7F37
:1008500060931F036695617081E0682783E00E94C2
:10086000700341EB50E0FA0164918DE990E0FC01E6
:100870002491222399F030E0220F331FF901EA5727
:10088000FF4FA591B491F901E057FF4F25913491A5
:100890002FB7F8943C91632B6C932FBFFA014491CE
:1008A00040931103FC018491E82FF0E0EE0FFF1F4D
:1008B000E057FF4F85919491909313038093120317
:1008C00000EB10E0F8012491CCE9D0E0FE01849126
:1008D0008823C9F090E0880F991FFC01EA57FF4F69
:1008E000A591B491FC01E057FF4F459154913FB75A
:1008F000F8949C91822F809598239C93FA01908183
:10090000892380833FBF80911F0381FD04C061E084
:1009100082E00E94700382E080930D03F80104914D
:1009200000930E03FE01C491EC2FF0E0EE0FFF1FC9
:10093000E458FF4F859194919093100380930F0397
:10094000DF91CF911F910F910895CF93DF93CDB792
:10095000DEB7A1970FB6F894DEBF0FBECDBF789477
:1009600084B5826084BD84B5816084BD85B58260B4
:1009700085BD85B5816085BD80916E008160809365
:100980006E001092810080918100826080938100CE
:1009900080918100816080938100809180008160DE
:1009A000809380008091B10084608093B100809139
:1009B000B00081608093B00080917A008460809361
:1009C0007A0080917A00826080937A0080917A0028
:1009D000816080937A0080917A00806880937A00A9
:1009E0001092C100E0917402F091750282E0808360
:1009F000E0917002F09171021082E0917202F09128
:100A000073028FEC808310927C02E0917802F09167
:100A1000790286E08083E0917602F091770280810E
:100A200080618083E0917602F09177028081886016
:100A30008083E0917602F0917702808180688083E4
:100A4000E0917602F091770280818F7D8083109211
:100A50001C0310921B0310921A0310921903109298
:100A60001803109217038DE991E090931E03809371
:100A70001D0390910D03963108F047C02DEB30E037
:100A800030931803209317032BE931E030931A03B6
:100A9000209319032CE231E030931C0320931B03B5
:100AA0002091680084E0983048F031E09E3008F4EE
:100AB00030E081E001C0880F3A95EAF7822B8093FD
:100AC00068002DE630E0983050F02BE630E09E30A4
:100AD00030F02CE630E0963110F030E020E030933A
:100AE000150320931403292F30E0983008F0CDC36C
:100AF00081E001C0880F9A95EAF7809316038091F0
:100B00001D0390911E030197F1F780911B039091B3
:100B10001C03892B49F1E091EC01F091ED0123E0F8
:100B2000E130F20709F1309739F0A389B4899C913B
:100B30008589809589238C9380911F038E7F809374
:100B40001F031092EB011092EA0181E093E0909371
:100B5000ED018093EC01E0911403F0911503808185
:100B600090911603892B80838AEA809338028BEB5D
:100B70008093390210923A0288E291E00E94490281
:100B800088E591E00E9449028BE0882E912CA12CEF
:100B9000B12C95E0492E512C612C712C20E0222E95
:100BA00020E0322E11E081E093E00E940F0218163F
:100BB000190684F481E093E00E942502833551F404
:100BC00010933A028BE591E00E94490288E591E09A
:100BD0000E9449022FB7F8948091600290916102BF
:100BE000A0916202B09163022FBF409134025091F4
:100BF00035026091360270913702841B950BA60B6B
:100C0000B70B4497A105B10508F4E0C12FB7F894DC
:100C10008091600290916102A0916202B0916302A2
:100C20002FBF8093340290933502A0933602B09385
:100C300037020E94BA0925E130E040E050E00E940E
:100C4000120A6A507109810991090E945C0B2DEC0E
:100C50003CEC4CEC5DE30E94E80B20E030E04BE91B
:100C600053E40E947C0A60932C0270932D028093BF
:100C70002E0290932F020E94BA09A50194010E94AE
:100C8000120A65507109810991090E945C0B2DECD3
:100C90003CEC4CEC5DE30E94E80B20E030E04CE9DA
:100CA00051E40E947C0A60930402709305028093D1
:100CB0000602909307020E94BA0929E030E040E062
:100CC00050E00E94120A64507109810991090E9442
:100CD0005C0B2DEC3CEC4CEC5DE30E94E80B20E05F
:100CE00030E044E851E40E947C0A60930C02709367
:100CF0000D0280930E0290930F020E94BA09A30185
:100D000092010E94120A62507109810991090E94A0
:100D10005C0B2DEC3CEC4CEC5DE30E94E80B20E01E
:100D200030E040EC51E40E947C0A6B017C01C092EF
:100D30001402D0921502E0921602F092170220914E
:100D40000C0230910D0240910E0250910F02609101
:100D500004027091050280910602909107020E94A0
:100D6000E80B2BE734E14EE65FE30E94E80BA701B6
:100D700096010E94E80A9B01AC0120931C0230936B
:100D80001D0240931E0250931F02C701B6010E942C
:100D9000E80B6093240270932502809326029093BF
:100DA00027020E94BA09A50194010E94120A655007
:100DB0007109810991090E945C0B2DEC3CEC4CEC13
:100DC0005DE30E94E80B20E030E048E451E40E943B
:100DD0007C0A6093FC017093FD018093FE01909367
:100DE000FF010E94BA09A30192010E94120A6250F7
:100DF0007109810991090E945C0B2DEC3CEC4CECD3
:100E00005DE30E94E80B20E030E048E252E40E94FB
:100E10007C0A6B017C01C092F401D092F501E09252
:100E2000F601F092F70120912C0230912D024091B1
:100E30002E0250912F026091300270913102809108
:100E40003202909133020E947C0A609330027093C8
:100E50003102809332029093330220912402309128
:100E6000250240912602509127026091280270913C
:100E7000290280912A0290912B020E947C0A6093A1
:100E800028027093290280932A0290932B022091CA
:100E90001C0230911D0240911E0250911F02609170
:100EA00020027091210280912202909123020E94DF
:100EB0007C0A609320027093210280932202909317
:100EC0002302209114023091150240911602509194
:100ED0001702609118027091190280911A02909184
:100EE0001B020E947C0A609318027093190280937F
:100EF0001A0290931B0220910C0230910D02409136
:100F00000E0250910F0260911002709111028091B7
:100F10001202909113020E947C0A60931002709357
:100F200011028093120290931302209104023091D7
:100F300005024091060250910702609108027091EB
:100F4000090280910A0290910B020E947C0A609330
:100F500008027093090280930A0290930B02209179
:100F6000FC013091FD014091FE015091FF01609123
:100F700000027091010280910202909103020E948E
:100F80007C0A6093000270930102809302029093A6
:100F90000302A70196016091F8017091F901809117
:100FA000FA019091FB010E947C0A6093F801709312
:100FB000F9018093FA019093FB018091F2019091E5
:100FC000F30101969093F3018093F2012FB7F89407
:100FD0008091600290916102A0916202B0916302DF
:100FE0002FBF4091EE015091EF016091F00170919F
:100FF000F101841B950BA60BB70B843F9140A10513
:10100000B10508F436C12FB7F89480916002909131
:101010006102A0916202B09163022FBF8093EE0142
:101020009093EF01A093F001B093F1016091F20170
:101030007091F3016115710509F41BC190E080E026
:101040000E945A0B6B017C01AC019B016091300244
:101050007091310280913202909133020E94E80A2D
:1010600060933B0270933C0280933D0290933E025A
:10107000A7019601609128027091290280912A02AD
:1010800090912B020E94E80A60933F027093400205
:101090008093410290934202A70196016091200241
:1010A0007091210280912202909123020E94E80A0D
:1010B00060934302709344028093450290934602EA
:1010C000A7019601609118027091190280911A028D
:1010D00090911B020E94E80A6093470270934802B5
:1010E0008093490290934A02A701960160911002F1
:1010F0007091110280911202909113020E94E80AED
:1011000060934B0270934C0280934D0290934E0279
:10111000A7019601609108027091090280910A026C
:1011200090910B020E94E80A60934F027093500264
:101130008093510290935202A701960160910002A0
:101140007091010280910202909103020E94E80ACC
:101150006093530270935402809355029093560209
:10116000A70196016091F8017091F9018091FA014F
:101170009091FB010E94E80A609357027093580215
:101180008093590290935A0243E250E068E372E080
:1011900081E093E00E948D0083E891E00E94490283
:1011A0002091F2013091F30150E040E019A27E015C
:1011B000F1E2EF0EF11CCA01B9012AE030E040E093
:1011C00050E00E94440A605DF70162937F0121159F
:1011D00031054105510579F7309719F0CF010E948B
:1011E000490288E591E00E94490210923002109273
:1011F00031021092320210923302109228021092A1
:10120000290210922A0210922B02109220021092B0
:1012100021021092220210922302109218021092C0
:10122000190210921A0210921B02109210021092D0
:1012300011021092120210921302109208021092E0
:10124000090210920A0210920B02109200021092F0
:10125000010210920202109203021092F801109201
:10126000F9011092FA011092FB011092F301109211
:10127000F2012114310409F496CC0E94F70088236E
:1012800009F491CC0E9400008ECC9E3040F428508E
:10129000310981E001C0880F2A95EAF72ECC2E5043
:1012A0003109F7CF8AE191E0909302038093010323
:1012B0008091EC019091ED018150934071F4E091A7
:1012C0001403F09115039081809116038095892372
:1012D00080831092ED011092EC0108958F929F92FD
:1012E000AF92BF92CF92DF92EF92FF92CF93DF93B4
:1012F000EC01688179818A819B8161157105810585
:10130000910521F464E279ED8BE597E02DE133EF6F
:1013100041E050E00E94120A49015A019B01AC01D0
:10132000A7EAB1E40E94310A6B017C01ACEEB4EF94
:10133000A50194010E943F0AC60ED71EE81EF91EA1
:10134000F7FE06C081E0C81AD108E10880E8F80A73
:10135000C882D982EA82FB82C701B6019F77DF91FA
:10136000CF91FF90EF90DF90CF90BF90AF909F9084
:101370008F9008958F929F92AF92BF92CF92DF92FB
:10138000EF92FF9260910001709101018091020142
:1013900090910301611571058105910521F464E2C5
:1013A00079ED8BE597E02DE133EF41E050E00E94CD
:1013B000120A49015A019B01AC01A7EAB1E40E945B
:1013C000310A6B017C01ACEEB4EFA50194010E94DF
:1013D0003F0AC60ED71EE81EF91EF7FE06C081E0C2
:1013E000C81AD108E10880E8F80AC0920001D0923A
:1013F0000101E0920201F0920301C701B6019F775B
:10140000FF90EF90DF90CF90BF90AF909F908F9024
:1014100008956093000170930101809302019093FD
:1014200003010895052E97FB1EF400940E94290ADB
:1014300057FD07D00E94440A07FC03D04EF40C94D9
:10144000290A50954095309521953F4F4F4F5F4F5A
:10145000089590958095709561957F4F8F4F9F4F20
:1014600008950E94660AA59F900DB49F900DA49FB9
:10147000800D911D11240895B7FF0C94310A0E942C
:10148000310A821B930B0895A1E21A2EAA1BBB1BE3
:10149000FD010DC0AA1FBB1FEE1FFF1FA217B30740
:1014A000E407F50720F0A21BB30BE40BF50B661F56
:1014B000771F881F991F1A9469F76095709580951A
:1014C00090959B01AC01BD01CF010895A29FB00191
:1014D000B39FC001A39F700D811D1124911DB29F68
:1014E000700D811D1124911D0895EE0FFF1F0590B1
:1014F000F491E02D09945058BB27AA270E94930A23
:101500000C94AE0B0E94A00B38F00E94A70B20F0A9
:1015100039F49F3F19F426F40C949D0B0EF4E095DA
:10152000E7FB0C94970BE92F0E94BF0B58F3BA17F7
:10153000620773078407950720F079F4A6F50C94E9
:10154000E10B0EF4E0950B2EBA2FA02D0B01B90183
:1015500090010C01CA01A0011124FF27591B99F029
:10156000593F50F4503E68F11A16F040A22F232F35
:10157000342F4427585FF3CF469537952795A79585
:10158000F0405395C9F77EF41F16BA0B620B730B2C
:10159000840BBAF09150A1F0FF0FBB1F661F771F9D
:1015A000881FC2F70EC0BA0F621F731F841F48F452
:1015B000879577956795B795F7959E3F08F0B0CFDB
:1015C0009395880F08F09927EE0F979587950895C2
:1015D0000E94FC0A0C94AE0B0E94A70B58F00E94CC
:1015E000A00B40F029F45F3F29F00C94970B5111A8
:1015F0000C94E20B0C949D0B0E94BF0B68F3992393
:10160000B1F3552391F3951B550BBB27AA276217FE
:101610007307840738F09F5F5F4F220F331F441F0B
:10162000AA1FA9F335D00E2E3AF0E0E832D091503F
:101630005040E695001CCAF72BD0FE2F29D0660F2C
:10164000771F881FBB1F261737074807AB07B0E86F
:1016500009F0BB0B802DBF01FF2793585F4F3AF075
:101660009E3F510578F00C94970B0C94E20B5F3F72
:10167000E4F3983ED4F3869577956795B795F795FB
:101680009F5FC9F7880F911D9695879597F90895E3
:10169000E1E0660F771F881FBB1F6217730784077F
:1016A000BA0720F0621B730B840BBA0BEE1F88F78E
:1016B000E0950895E89409C097FB3EF490958095D5
:1016C000709561957F4F8F4F9F4F9923A9F0F92F08
:1016D00096E9BB279395F695879577956795B79586
:1016E000F111F8CFFAF4BB0F11F460FF1BC06F5F6C
:1016F0007F4F8F4F9F4F16C0882311F096E911C07E
:10170000772321F09EE8872F762F05C0662371F09E
:1017100096E8862F70E060E02AF09A95660F771FB2
:10172000881FDAF7880F9695879597F9089597F9A6
:101730009F6780E870E060E008959FEF80EC089577
:1017400000240A94161617061806090608950024A0
:101750000A9412161306140605060895092E03941A
:10176000000C11F4882352F0BB0F40F4BF2B11F48E
:1017700060FF04C06F5F7F4F8F4F9F4F089557FDED
:101780009058440F551F59F05F3F71F04795880FEF
:1017900097FB991F61F09F3F79F087950895121686
:1017A00013061406551FF2CF4695F1DF08C0161632
:1017B00017061806991FF1CF8695710561050894E3
:1017C0000895E894BB2766277727CB0197F90895FA
:1017D0000E94FB0B0C94AE0B0E94A00B38F00E94F1
:1017E000A70B20F0952311F00C94970B0C949D0BF4
:1017F00011240C94E20B0E94BF0B70F3959FC1F370
:10180000950F50E0551F629FF001729FBB27F00DAE
:10181000B11D639FAA27F00DB11DAA1F649F662703
:10182000B00DA11D661F829F2227B00DA11D621F52
:10183000739FB00DA11D621F839FA00D611D221F0C
:10184000749F3327A00D611D231F849F600D211DF0
:10185000822F762F6A2F11249F5750409AF0F1F073
:1018600088234AF0EE0FFF1FBB1F661F771F881FDC
:1018700091505040A9F79E3F510580F00C94970B72
:101880000C94E20B5F3FE4F3983ED4F38695779592
:101890006795B795F795E7959F5FC1F7FE2B880F82
:1018A000911D9695879597F9089510E0C2E6D0E0CE
:1018B00004C0FE010E94750A2196C336D107C9F7FC
:0418C000F894FFCFCA
:1018C40001000000000000002D018D00BA007A0123
:1018D400EB00C900DD0000000000B3018D004602EA
:1018E400B2010F0225029A0141726475696E6F207C
:1018F400626F6F7465642E2042726F6164636173FA
:1019040074696E6720746F20455350206F6E2044B5
:10191400322F44332E2E2E000D0A003E3E3E20452B
:101924002D53544F5020464C41472052454345497E
:101934005645442046524F4D204553503332203CA7
:101944003C3C004469737061746368656420706131
:10195400636B65742E2053616D706C6520636F75C5
:0A1964006E7420757365643A20006C
:00000001FF
