:100000000C9480000C9491040C946A040C94A80045
:100010000C94A8000C94A8000C94A8000C94A800C0
:100020000C94A8000C94A8000C94A8000C94A800B0
:100030000C94A8000C94A8000C94A8000C94A800A0
:100040000C9420040C94A8000C94DE040C94B804C6
:100050000C94A8000C94A8000C94A8000C94A80080
:100060000C94A8000C94A8004E414E494E49545996
:10007000494E46CDCCCC3D0AD7233C17B7D1387773
:10008000CC2B329595E6241FB14F0A000020410089
:1000900000C84200401C4620BCBE4CCA1B0E5AAED3
:1000A000C59D740000000023002600290000000008
:1000B00000240027002A0000000000250028002B53
:1000C0000004040404040404040202020202020301
:1000D000030303030301020408102040800102040B
:1000E000081020010204081020000000080002018E
:1000F00000000304070000000000000000001E09CB
:1001000011241FBECFEFD8E0DEBFCDBF11E0A0E0CD
:10011000B1E0E4E3FFE102C005900D92A23BB1071C
:10012000D9F722E0A2EBB1E001C01D92A437B207DB
:10013000E1F710E0C0E8D0E004C02197FE010E9482
:10014000790CCF37D107C9F70E9410050C94980F8E
:100150000C940000833081F028F4813099F08230D3
:10016000A9F008958730A9F08830C9F08430B1F43F
:10017000809180008F7D03C0809180008F77809375
:100180008000089584B58F7784BD089584B58F7DF0
:10019000FBCF8091B0008F778093B000089580915D
:1001A000B0008F7DF9CF1F93CF93DF93282F30E0DE
:1001B000F901E751FF4F8491F901EB52FF4FD491C0
:1001C000F901EF53FF4FC491CC23A9F0162F8111F1
:1001D0000E94AA00EC2FF0E0EE0FFF1FE954FF4F42
:1001E000A591B4918FB7F894EC91111108C0D095F6
:1001F000DE23DC938FBFDF91CF911F910895DE2B1B
:10020000F8CFCF93DF9390E0FC01EB52FF4F2491A6
:100210008F539F4FFC0184918823D1F090E0880F89
:10022000991FFC01E355FF4FA591B491FC01E954DE
:10023000FF4FC591D49161110EC09FB7F8948C9176
:10024000E22FE0958E238C932881E223E8839FBFE1
:10025000DF91CF9108958FB7F894EC91E22BEC9356
:100260008FBFF6CF0895AF92BF92CF92DF92EF92F9
:10027000FF920F931F93CF93DF936C017B018B0150
:10028000040F151FEB015E01AE18BF08C017D107A0
:1002900059F06991D601ED91FC910190F081E02D2A
:1002A000C6010995892B79F7C501DF91CF911F917F
:1002B0000F91FF90EF90DF90CF90BF90AF90089597
:1002C000FC01538D448D252F30E0842F90E0821B5C
:1002D000930B541710F0CF96089501970895FC01E1
:1002E000918D828D981761F0A28DAE0FBF2FB11D39
:1002F0005D968C91928D9F5F9F73928F90E0089591
:100300008FEF9FEF08952FB7F8948091CD019091D2
:10031000CE01A091CF01B091D0012FBF8093D90120
:100320009093DA01A093DB01B093DC0181ED91E0C1
:100330000E946F0197FF26C02FB7F8948091CD01DE
:100340009091CE01A091CF01B091D0012FBF4091EB
:10035000D9015091DA016091DB017091DC01841BBD
:10036000950BA60BB70B4091D5015091D60160912A
:10037000D7017091D80184179507A607B707B0F287
:100380008FEF9FEF0895FC01918D828D981731F0CA
:10039000828DE80FF11D858D90E008958FEF9FEF1E
:1003A0000895FC01918D228D892F90E0805C9F4FF4
:1003B000821B91098F739927089581ED91E00E9426
:1003C000D10121E0892B09F420E0822F089580E0FB
:1003D00090E0892B29F00E94DD0181110C9400002E
:1003E0000895FC01A48DA80FB92FB11DA35ABF4FCA
:1003F0002C91848D90E001968F739927848FA68924
:10040000B7892C93A089B1898C91837080648C9377
:10041000938D848D981306C00288F389E02D808126
:100420008F7D80830895EF92FF920F931F93CF9358
:10043000DF93EC0181E0888F9B8D8C8D98131AC01F
:10044000E889F989808185FF15C09FB7F894EE8906
:10045000FF896083E889F989808183708064808363
:100460009FBF81E090E0DF91CF911F910F91FF90AE
:10047000EF900895F62E0B8D10E00F5F1F4F0F7356
:100480001127E02E8C8D8E110CC00FB607FCFACF11
:10049000E889F989808185FFF5CFCE010E94F101BD
:1004A000F1CFEB8DEC0FFD2FF11DE35AFF4FF082E2
:1004B0009FB7F8940B8FEA89FB8980818062CFCF48
:1004C000CF93DF93EC01888D8823B9F0AA89BB898B
:1004D000E889F9898C9185FD03C0808186FD0DC076
:1004E0000FB607FCF7CF8C9185FFF2CF808185FF97
:1004F000EDCFCE010E94F101E9CFDF91CF910895B8
:10050000CF93DF93ECEEF0E08491E8EDF0E0D4914E
:10051000E4ECF0E0C491CC2321F181110E94AA0007
:10052000EC2FF0E0EE0FFF1FED55FF4FA591B491BA
:10053000EC91ED23B1F08091B2019091B301A091C3
:10054000B401B091B5010197A109B1098093B2013D
:100550009093B301A093B401B093B501DF91CF9113
:1005600008958091B2019091B301A091B401B0912E
:10057000B5010196A11DB11DE9CFFC01019000203C
:10058000E9F73197AF01481B590BBC0181ED91E0B0
:100590000C9433018F929F92AF92BF920F931F934F
:1005A000CF93DF93CDB7DEB7A1970FB6F894DEBF38
:1005B0000FBECDBF19A2423008F44AE08E010F5D94
:1005C0001F4F842E912CB12CA12CA50194010E94C7
:1005D000480CE62FB901CA01EA30F4F4E05DD80115
:1005E000EE938D01232B242B252B79F790E080E0CF
:1005F000109719F0CD010E94BD02A1960FB6F89494
:10060000DEBF0FBECDBFDF91CF911F910F91BF9085
:10061000AF909F908F900895E95CE1CFCF93DF93E7
:100620000E94BD02EC018CE191E00E94BD028C0FA2
:100630009D1FDF91CF9108954F925F926F927F92AD
:100640008F929F92AF92BF92CF92DF92EF92FF92E2
:100650000F931F93CF936B017C01742EAC019B0110
:100660000E94990D882399F08FE191E0CF911F911D
:100670000F91FF90EF90DF90CF90BF90AF909F9041
:100680008F907F906F905F904F900C94BD024601C9
:100690005701E894B7F82FEF3FEF4FE75FE7C50149
:1006A000B4010E94990D81110DC02FEF3FEF4FE76C
:1006B0005FE7C501B4010E94C00A18161CF483E26A
:1006C00091E0D4CF2FEF3FEF4FE75FE4C701B601D2
:1006D0000E94940D18161CF487E291E0C7CF2FEF0B
:1006E0003FEF4FE75FECC701B6010E94C00A87FDEC
:1006F000F3CF20E030E0A901C701B6010E94C00A93
:1007000010E000E087FF0AC06DE281ED91E00E94F9
:1007100013028C01F7FAF094F7F8F094C0E060E06F
:1007200070E080E09FE37C1641F020E030E040E2A2
:1007300051E40E94EC0CCF5FF6CFA70196010E9416
:10074000800C2B013C010E94650D4B015C014AE0CD
:100750000E94CA027C01E00EF11ECC23C1F1C5014A
:10076000B4010E94C50A9B01AC01C301B2010E9401
:100770007F0C4B015C016EE281ED91E00E9413025F
:10078000E80EF91EC15018F120E030E040E251E4DB
:10079000C501B4010E94260B2B013C010E94650D8E
:1007A0004B01B12CA12C4AE0C501B4010E94CA0240
:1007B000E80EF91EC501B4010E94C50A9B01AC01F7
:1007C000C301B2010E947F0C4B015C01DBCFC7016A
:1007D000CF911F910F91FF90EF90DF90CF90BF903E
:1007E000AF909F908F907F906F905F904F90089503
:1007F0000F931F93CF93DF93EC018881998100972A
:1008000059F02A813B812617370730F081E0DF91CC
:10081000CF911F910F9108958B016F5F7F4F0E94C1
:10082000C30E009759F0998388831B830A832C8118
:100830003D81232B59F7FC011082E8CF80E0E7CF00
:100840001F920F920FB60F9211242F933F938F9305
:100850009F93AF93BF938091CD019091CE01A091D2
:10086000CF01B091D0013091CC0123E0230F2D377F
:1008700058F50196A11DB11D2093CC018093CD01A7
:100880009093CE01A093CF01B093D0018091C80185
:100890009091C901A091CA01B091CB010196A11D0F
:1008A000B11D8093C8019093C901A093CA01B09370
:1008B000CB01BF91AF919F918F913F912F910F905D
:1008C0000FBE0F901F90189526E8230F0296A11DCA
:1008D000B11DD2CF1F920F920FB60F9211242F93FA
:1008E0003F934F935F936F937F938F939F93AF93B8
:1008F000BF93EF93FF93E0910201F09103010995FB
:10090000FF91EF91BF91AF919F918F917F916F91E7
:100910005F914F913F912F910F900FBE0F901F90BD
:1009200018951F920F920FB60F9211242F933F9399
:100930004F935F936F937F938F939F93AF93BF93E7
:10094000EF93FF93E0910001F09101010995FF9170
:10095000EF91BF91AF919F918F917F916F915F9137
:100960004F913F912F910F900FBE0F901F901895B0
:100970001F920F920FB60F9211242F933F934F9314
:100980005F936F937F938F939F93AF93BF93EF93F7
:10099000FF9381ED91E00E94F101FF91EF91BF91F2
:1009A000AF919F918F917F916F915F914F913F9107
:1009B0002F910F900FBE0F901F9018951F920F92BE
:1009C0000FB60F9211242F938F939F93EF93FF9362
:1009D000E091E101F091E2018081E091E701F09185
:1009E000E80182FD1BC090818091EA018F5F8F73C7
:1009F0002091EB01821741F0E091EA01F0E0EF5223
:100A0000FE4F958F8093EA01FF91EF919F918F9117
:100A10002F910F900FBE0F901F9018958081F4CFEB
:100A2000CF93DF93CDB7DEB760970FB6F894DEBFF4
:100A30000FBECDBF789484B5826084BD84B58160DB
:100A400084BD85B5826085BD85B5816085BD809199
:100A50006E00816080936E00109281008091810011
:100A60008260809381008091810081608093810009
:100A7000809180008160809380008091B1008460CB
:100A80008093B1008091B00081608093B00080912C
:100A90007A00846080937A0080917A0082608093EB
:100AA0007A0080917A00816080937A0080917A0048
:100AB000806880937A001092C100E091E101F0918A
:100AC000E20182E08083E091DD01F091DE0110829D
:100AD000E091DF01F091E0018FEC80831092E90159
:100AE000E091E501F091E60186E08083E091E30189
:100AF000F091E401808180618083E091E301F091D5
:100B0000E401808188608083E091E301F091E40159
:100B1000808180688083E091E301F091E40180812D
:100B20008F7D808360E082E00E94010160E083E0CD
:100B30000E94010180E892E09093010180930001FE
:100B400080916900836080936900E89A61E088E0A1
:100B50000E94010161E089E00E94010160E088E0FB
:100B60000E94D30061E089E00E94010160E089E019
:100B70000E94D3002FB7F8948091CD019091CE01BF
:100B8000A091CF01B091D0012FBF8093C401909369
:100B9000C501A093C601B093C7018BE291E00E940A
:100BA0000E0320E0222E20E0322E2FB7F894809101
:100BB000CD019091CE01A091CF01B091D0012FBF76
:100BC0004091C4015091C5016091C6017091C70167
:100BD0008C019D01041B150B260B370BB901A801D5
:100BE0004A3051056105710508F48DC18093C40137
:100BF0009093C501A093C601B093C701F89460918A
:100C0000B2017091B3018091B4019091B5017894D3
:100C10000E94C70A20E030EE49E055E40E94EC0C47
:100C20009B01AC010E94800C2BED3FE049E450E4B5
:100C30000E94260B6D877E878F87988B9B01AC0166
:100C40006091C0017091C1018091C2019091C30176
:100C50000E947F0C6B017C012091BC013091BD0191
:100C60004091BE015091BF010E947F0C2AE037EDF8
:100C700043E25CE30E94EC0C2B013C0120E030E0FD
:100C8000A901C701B6010E94940D18169CF42DEC21
:100C90003CEC4CE45EE3C701B6010E94C00A87FD4C
:100CA0001EC01092B8011092B9011092BA011092B0
:100CB000BB013BC02DEC3CEC4CE45EEBC701B60144
:100CC0000E94940D18166CF72AE037ED43EA5CEBAE
:100CD000C701B6010E94C00A87FFE3CF0AC02AE01D
:100CE00037ED43EA5CE3C701B6010E94940D181684
:100CF000C4F62AE037ED43E25CE3C701B6010E9487
:100D0000260B9B01AC016091B8017091B9018091F3
:100D1000BA019091BB010E94800C6093B80170935E
:100D2000B9018093BA019093BB0124E63BE343E809
:100D300050E4C701B6010E94260B4B015C012EE96D
:100D40003FEE47EA5CE3C301B2010E94260B9B0120
:100D5000AC01C501B4010E94800C4B015C0120E094
:100D600030E040EC5FE36091B8017091B90180918F
:100D7000BA019091BB010E94260B9B01AC01C501F9
:100D8000B4010E94800C3B018C0120E030E040E483
:100D900051EC0E94C00A87FD13C020E030E040E41F
:100DA00051E4B301C8010E94940D812C912C90E470
:100DB000A92E91E4B92E18164CF04301580106C033
:100DC000812C912C80E4A82E81ECB82E20E030E01C
:100DD000A901B301C8010E94940D60E087FD61E0A4
:100DE00088E00E94D30020E030E0A901C501B401F1
:100DF0000E94940D18160CF0CDC020E030E04AE7B8
:100E000054E4C501B4010E94260B0E945E0DAFEFB1
:100E1000B0E09B01AC010E94060C20EE3EE240E0F7
:100E200050E00E94E70B8901121613062CF42431BE
:100E3000310514F404E110E020E030E0A901C7011D
:100E4000B6010E94940D18160CF0ACC02AE037EDE4
:100E500043EA5CE3C701B6010E94C00A18160CF40D
:100E6000ABC010E000E00F3F110519F014F00FEFD8
:100E700010E061E089E00E9401010115110509F00F
:100E8000A0C060E089E00E94D300C092BC01D09273
:100E9000BD01E092BE01F092BF018091B601909138
:100EA000B70101969093B7018093B6010A975CF160
:100EB00080E591E00E94BD026091C0017091C10186
:100EC0008091C2019091C30143E00E941C0388E518
:100ED00091E00E94BD0243E06D857E858F859889F3
:100EE0000E941C0383E691E00E94BD0243E0C7011B
:100EF000B6010E941C038CE191E00E94BD02109299
:100F0000B7011092B60181ED91E00E94D10118164F
:100F100019060CF01BC118861F821A8619861C86BA
:100F20001B8670E060E0CE0107960E94F8032F81D7
:100F3000388581118DC02115310519F0C9010E9434
:100F40003A0E18861F821C861B861A8619860E94F6
:100F500083010B851C8597FD83C08A30910509F4B8
:100F60007FC089831A820F5F1F4FB801CE01079699
:100F70000E94F803882359F32F8138858B859C853F
:100F8000BE016F5F7F4F820F931F0E94910F1C87DE
:100F90000B87DDCFC501B401905820E030E04AE76F
:100FA00054E431CF2AE037ED43EA5CEBC701B601E8
:100FB0000E94940D87FF55CF17FF55CF10E000E03A
:100FC00058CF0F3F110511F461E05CCFE2EFF0E084
:100FD0008491833019F140F48130B1F08230C9F04E
:100FE000003811058CF74DCF873011F1883041F171
:100FF0008430B1F7809180008062809380001093EC
:101000008B0000938A0041CF84B5806884BD07BD02
:101010003CCF84B5806284BD08BD37CF809180000D
:1010200080688093800010938900009388002DCF02
:101030008091B00080688093B0000093B30025CF0A
:101040008091B00080628093B0000093B4001DCF07
:101050001C861B866EE171E0C9010E94910F77CF5B
:10106000CF80D884C114D10429F07601011511056F
:1010700009F079C08B859C85892B09F461C0109299
:10108000B8011092B9011092BA011092BB011A82F4
:1010900019821C821B821E821D8261E070E0CE01DB
:1010A00001960E94F80329813A81811192C021158D
:1010B000310519F0C9010E943A0E1A8219821E8266
:1010C0001D821C821B828B859C8509811A812D8142
:1010D0003E8182179307E9F4892B09F4A8C0CF80D9
:1010E000D8847801F60181916F01882309F49FC0AB
:1010F000082E000C990B0E94800F5C01F701819172
:101100007F01082E000C990B0E94800FA816B906CB
:1011100049F30115110509F466C0F12CC8010E94BC
:101120003A0EFF2009F45FC01092C0011092C10175
:101130001092C2011092C3018DE691E00E940E034D
:101140008F819885009711F00E943A0E2114310486
:1011500009F42BCD0E94DD01882309F426CD0E94DD
:10116000000023CD75015701FFEFAF1ABF0AF70149
:101170008081082E000C990B0E949F0A892B91F701
:10118000015011090C0D1D1DF8018081082E000C65
:10119000990B0E949F0A892B31F00E151F0518F03C
:1011A00001501109F1CF0F5F1F4FA8014E195F09C0
:1011B0005C874B87CE14DF0420F4B701C6010E9480
:1011C000880FEF81F8858B859C85E80FF91F1082C9
:1011D00051CF81E090E09E838D836BE671E0C90181
:1011E0000E94910F70CF8F8198850097E1F00E9447
:1011F0004B096093C0017093C1018093C201909329
:10120000C30186E991E00E94BD026091C001709126
:10121000C1018091C2019091C30142E00E941C0370
:101220008AEA91E08BCF60E070E0CB01E2CFFF244F
:10123000F3940115110509F071CF76CFE1EDF1E0DE
:101240001382128288EE93E0A0E0B0E0848395835D
:10125000A683B7838EE091E09183808385EC90E054
:101260009587848784EC90E09787868780EC90E070
:10127000918B808B81EC90E0938B828B82EC90E061
:10128000958B848B86EC90E0978B868B118E128EDB
:10129000138E148E0895662777270C944F09B0E0BB
:1012A000A0E0E5E5F9E00C94170C5C017B01611509
:1012B000710519F0DB018D939C9385010F5F1F4F22
:1012C000F501D0818D2F90E00E949F0A6C01892B3F
:1012D000B9F5DD32B9F50F5F1F4FD5011196DC91DD
:1012E000C1E05801F1E0AF1AB10843E050E060E717
:1012F00070E0C5010E94A80A892B69F5680182E0A7
:10130000C80ED11C45E050E06BE670E0C6010E94BB
:10131000A80A892B21F4680197E0C90ED11CE114B9
:10132000F10419F0D701CD92DC9260E070E080E822
:101330009FEFC111FFC060E070E080E89FE7FAC056
:101340005801BBCFDB3229F485010E5F1F4FF50139
:10135000D181C0E0C6CF43E050E068E670E0C5014F
:101360000E94A80A892BE9F0F80110E000E020E0D3
:1013700030E0A9015F01B0ED8B2E8D0E89E088155C
:10138000C8F19C2E689491F88C2F8870C2FF16C00B
:10139000811102C00F5F1F4F3196D501DC91C92D1D
:1013A000E9CFE114F10429F00E5F1F4FF70111831B
:1013B000008360E070E080EC9FE7BCC0882311F000
:1013C00001501109A5E0B0E00E94060C9B01AC01A0
:1013D000220F331F441F551F280D311D411D511D64
:1013E000283999E93907490799E15907A8F2C660F0
:1013F0009C2ED2CFAEEF8A1206C0C3FD3CC09C2EFD
:10140000689493F8C9CFDF7DD534A9F580818D32FA
:1014100039F4C061DF011296818162E070E006C09C
:10142000DF018B32C1F3119661E070E080535D0102
:10143000A61AB70A8A30F8F4E0E8CE16ECE0DE0629
:101440005CF4B601660F771F660F771FC60ED71EB6
:10145000CC0CDD1CC80ED11C5D01FFEFAF1ABF0A1A
:101460008C9180538A30A8F1C4FF03C0D194C194F9
:10147000D1080C0D1D1DC1FF09C0E114F10431F0AC
:1014800081E0A81AB108D701AD92BC92CA01B90196
:101490000E94C50AC370C33009F490584B015C0127
:1014A00020E030E0A9010E94C00A882309F440C06E
:1014B000CFE9D0E017FF05C0119501951109C7E8E4
:1014C000D0E06E01B8E1CB1AD10880E2E82EF12C11
:1014D0000FC0D501B1CFFE012591359145915491B1
:1014E0000E191F09C501B4010E94260B4B015C01B6
:1014F000D501C4010E151F0574F72497F594E794E0
:10150000CC16DD06A9F78A2F880F8B2F881F8F3FF7
:1015100049F020E030E0A901C501B4010E94C00AF1
:10152000811106C082E290E090936F0280936E0278
:10153000C501B401CDB7DEB7ECE00C94330C9111CA
:101540000C94930B803219F089508550C8F7089598
:10155000FB01DC014150504088F08D9181341CF03A
:101560008B350CF4805E659161341CF06B350CF4A6
:10157000605E861B611171F3990B0895881BFCCF87
:101580000E94020B08F481E00895E89409C097FBDB
:101590003EF490958095709561957F4F8F4F9F4F4A
:1015A0009923A9F0F92F96E9BB279395F69587958E
:1015B00077956795B795F111F8CFFAF4BB0F11F451
:1015C00060FF1BC06F5F7F4F8F4F9F4F16C08823F8
:1015D00011F096E911C0772321F09EE8872F762F2E
:1015E00005C0662371F096E8862F70E060E02AF06F
:1015F0009A95660F771F881FDAF7880F969587955B
:1016000097F90895990F0008550FAA0BE0E8FEEF2F
:1016100016161706E807F907C0F012161306E407B6
:10162000F50798F0621B730B840B950B39F40A26AF
:1016300061F0232B242B252B21F408950A2609F48D
:10164000A140A6958FEF811D811D08950E94390B41
:101650000C94AD0B0E949F0B38F00E94A60B20F05B
:10166000952311F00C94960B0C949C0B11240C9464
:10167000E10B0E94BE0B70F3959FC1F3950F50E0F4
:10168000551F629FF001729FBB27F00DB11D639F34
:10169000AA27F00DB11DAA1F649F6627B00DA11DDA
:1016A000661F829F2227B00DA11D621F739FB00D80
:1016B000A11D621F839FA00D611D221F749F3327F0
:1016C000A00D611D231F849F600D211D822F762F89
:1016D0006A2F11249F5750409AF0F1F088234AF066
:1016E000EE0FFF1FBB1F661F771F881F91505040D2
:1016F000A9F79E3F510580F00C94960B0C94E10BDA
:101700005F3FE4F3983ED4F3869577956795B79558
:10171000F795E7959F5FC1F7FE2B880F911D969572
:10172000879597F9089599278827089597F99F67CE
:1017300080E870E060E008959FEF80EC0895002459
:101740000A941616170618060906089500240A9426
:1017500012161306140605060895092E0394000CAC
:1017600011F4882352F0BB0F40F4BF2B11F460FF3B
:1017700004C06F5F7F4F8F4F9F4F089557FD905864
:10178000440F551F59F05F3F71F04795880F97FB45
:10179000991F61F09F3F79F08795089512161306FF
:1017A0001406551FF2CF4695F1DF08C0161617062E
:1017B0001806991FF1CF8695710561050894089563
:1017C000E894BB2766277727CB0197F90895052E64
:1017D00097FB1EF400940E94FE0B57FD07D00E9459
:1017E000480C07FC03D04EF40C94FE0B509540952A
:1017F000309521953F4F4F4F5F4F089590958095BD
:10180000709561957F4F8F4F9F4F08950E946A0C8E
:10181000A59F900DB49F900DA49F800D911D112444
:1018200008952F923F924F925F926F927F928F9284
:101830009F92AF92BF92CF92DF92EF92FF920F935F
:101840001F93CF93DF93CDB7DEB7CA1BDB0B0FB669
:10185000F894DEBF0FBECDBF09942A883988488826
:101860005F846E847D848C849B84AA84B984C884BC
:10187000DF80EE80FD800C811B81AA81B981CE0FB3
:10188000D11D0FB6F894DEBF0FBECDBFED01089598
:10189000A1E21A2EAA1BBB1BFD010DC0AA1FBB1F74
:1018A000EE1FFF1FA217B307E407F50720F0A21BE6
:1018B000B30BE40BF50B661F771F881F991F1A9453
:1018C00069F760957095809590959B01AC01BD017D
:1018D000CF010895A29FB001B39FC001A39F700DD7
:1018E000811D1124911DB29F700D811D1124911D28
:1018F0000895EE0FFF1F0590F491E02D09945058C4
:10190000BB27AA270E94970C0C94AD0B0E949F0B3B
:1019100038F00E94A60B20F039F49F3F19F426F40A
:101920000C949C0B0EF4E095E7FB0C94960BE92FBE
:101930000E94BE0B58F3BA17620773078407950716
:1019400020F079F4A6F50C94E00B0EF4E0950B2E44
:10195000BA2FA02D0B01B90190010C01CA01A00101
:101960001124FF27591B99F0593F50F4503E68F15C
:101970001A16F040A22F232F342F4427585FF3CF9D
:10198000469537952795A795F0405395C9F77EF46E
:101990001F16BA0B620B730B840BBAF09150A1F0B7
:1019A000FF0FBB1F661F771F881FC2F70EC0BA0F3D
:1019B000621F731F841F48F4879577956795B795C5
:1019C000F7959E3F08F0B0CF9395880F08F09927C0
:1019D000EE0F9795879508950E94000D0C94AD0B1E
:1019E0000E94A60B58F00E949F0B40F029F45F3F25
:1019F00029F00C94960B51110C94E10B0C949C0B58
:101A00000E94BE0B68F39923B1F3552391F3951B04
:101A1000550BBB27AA2762177307840738F09F5F0F
:101A20005F4F220F331F441FAA1FA9F335D00E2E7C
:101A30003AF0E0E832D091505040E695001CCAF7E9
:101A40002BD0FE2F29D0660F771F881FBB1F2617AC
:101A500037074807AB07B0E809F0BB0B802DBF0183
:101A6000FF2793585F4F3AF09E3F510578F00C9452
:101A7000960B0C94E10B5F3FE4F3983ED4F386950C
:101A800077956795B795F7959F5FC9F7880F911D73
:101A90009695879597F90895E1E0660F771F881F5F
:101AA000BB1F621773078407BA0720F0621B730B12
:101AB000840BBA0BEE1F88F7E09508950E94650D20
:101AC0006894B1110C94E10B08950E94C60B88F044
:101AD0009F5798F0B92F9927B751B0F0E1F0660FF2
:101AE000771F881F991F1AF0BA95C9F714C0B13033
:101AF00091F00E94E00BB1E008950C94E00B672F89
:101B0000782F8827B85F39F0B93FCCF38695779561
:101B10006795B395D9F73EF490958095709561954A
:101B20007F4F8F4F9F4F08950E94020B08F48FEF55
:101B300008950E94020B880B990B08950F931F9331
:101B4000CF93DF938230910510F482E090E0E09132
:101B50007202F091730230E020E0B0E0A0E0309734
:101B600099F42115310509F44AC0281B390B24309A
:101B70003105D8F58A819B816115710589F1FB01D9
:101B800093838283FE0111C04081518102811381C0
:101B900048175907E0F04817590799F4109761F072
:101BA00012960C93129713961C933296CF01DF91E5
:101BB000CF911F910F9108950093720210937302B9
:101BC000F4CF2115310551F04217530738F0A90120
:101BD000DB019A01BD01DF01F801C1CFEF01F9CFAF
:101BE0009093730280937202CDCFFE01E20FF31F38
:101BF000819391932250310939832883D7CF209143
:101C0000700230917102232B41F420910601309132
:101C100007013093710220937002209104013091EA
:101C200005012115310541F42DB73EB7409108015A
:101C300050910901241B350BE0917002F091710263
:101C4000E217F307A0F42E1B3F0B2817390778F093
:101C5000AC014E5F5F4F2417350748F04E0F5F1FF2
:101C60005093710240937002819391939FCFF0E063
:101C7000E0E09CCFCF93DF930097E9F0FC0132972F
:101C800013821282A0917202B0917302ED0130E0D2
:101C900020E01097A1F420813181820F931F2091C1
:101CA0007002309171022817390709F061C0F09372
:101CB0007102E0937002DF91CF910895EA01CE178F
:101CC000DF07E8F54A815B819E0141155105B1F7B7
:101CD000E901FB83EA8349915991C40FD51FEC17A1
:101CE000FD0761F4808191810296840F951FE901BF
:101CF00099838883828193819B838A83F0E0E0E0EB
:101D000012968D919C9113970097B9F52D913C9166
:101D10001197CD010296820F931F2091700230918E
:101D200071022817390739F6309751F5109273026E
:101D300010927202B0937102A0937002BCCFD38351
:101D4000C28340815181840F951FC817D90761F460
:101D50004E5F5F4F88819981480F591F518340839F
:101D60008A819B81938382832115310509F0B0CF4D
:101D7000F0937302E09372029ECFFD01DC01C0CFAD
:101D800013821282D7CFB0E0A0E0E9ECFEE00C9421
:101D9000130C8C01009751F4CB010E949E0D8C0115
:101DA000C801CDB7DEB7E0E10C942F0CFC01E60FC3
:101DB000F71F9C0122503109E217F30708F49DC078
:101DC000D901CD91DC911197C617D70798F0C5308E
:101DD000D10530F3CE0104978617970708F3C61B89
:101DE000D70B2297C193D1936D937C93CF010E941F
:101DF0003A0ED6CF5B01AC1ABD0A4C018C0E9D1E6B
:101E0000A0917202B0917302512C412CF12CE12C63
:101E1000109731F5809170029091710288159905A3
:101E200009F05CC04616570608F058C080910401BE
:101E300090910501009741F48DB79EB7409108013C
:101E400050910901841B950BE817F90708F055C05C
:101E5000F0937102E0937002F90171836083A0CF67
:101E60008D919C91119712966C90129713967C907D
:101E70001397A815B90559F56C0142E0C40ED11CA1
:101E8000CA14DB0420F1AC014A195B09DA0112968D
:101E9000159780F06282738251834083D9016D93DC
:101EA0007C93E114F10471F0D7011396FC93EE9347
:101EB000129776CF22968C0F9D1FF9019183808314
:101EC000F301EFCFF0937302E093720269CF4816EB
:101ED000590608F42C017D01D3019ACFCB010E9451
:101EE0009E0D7C01009749F0AE01B8010E94880F59
:101EF000C8010E943A0E870153CF10E000E050CF96
:101F00009111089581548A5108F4805E855A08958C
:101F1000FB01DC0102C001900D9241505040D8F706
:101F20000895FB01DC0101900D920020E1F7089576
:041F3000F894FFCF53
:101F3400320132010000740280000000000013022C
:101F4400330160016002D1016F01C3010D0A006E0B
:101F5400616E00696E66006F7666003D3D3D3D3DF5
:101F64003D204252414B494E472041435455415430
:101F74004F52205245414459203D3D3D3D3D3D0099
:101F84005461726765743A002C506F736974696F99
:101F94006E3A002C4572726F723A0072000A2D3E3E
:101FA4002052657475726E696E6720746F20706854
:101FB40079736963616C207A65726F20706F696EE2
:101FC400742E2E2E0A000A2D3E2054617267657409
:101FD4002073657420746F3A200020726164730A60
:021FE4000000FB
:00000001FF
