:100000000C946D010C94200F0C94F50E0C94CA0EF8
:100010000C949F0E0C94740E0C94490E0C941E0EAE
:100020000C94F30D0C949E010C949E010C949E0173
:100030000C949E010C949E010C949E010C949E01C4
:100040000C949E010C949E010C949E010C949E01B4
:100050000C949E010C949E010C949E010C94A90D8D
:100060000C949E010C94D50F0C94AB0F0C949E0134
:100070000C949E010C949E010C949E010C949E0184
:100080000C949E010C949E010C949E010C949E0174
:100090000C949E010C949E010C949E010C949E0164
:1000A0000C949E010C949E010C949E010C949E0154
:1000B0000C949E010C949E010C949E010C949E0144
:1000C0000C949E010C949E010C949E010C94750F4F
:1000D0000C944B0F0C949E010C949E010C949E0169
:1000E0000C949E010C9456050C9472030C944204DB
:1000F0000C94CF040C9450030C94F6050C94B104AA
:100100000C9460040C94A6050C9470040C946C037D
:100110000C9443030C944C030C94A7040C945A03C2
:100120000C9446030C943B030C9431030C943A0753
:100130000C945E030C9443060C9415070C94BB04BA
:100140000C9471030C94C5040C940B100C9455057D
:100150000C9456040C9468040C9464030C947A0474
:100160000C9456030C9437030C948E040C94760371
:100170000C949D040C94B4050C943F030C944C0413
:100180000C9436040C9492050C9468030C9484042B
:100190000C943D040C9483050000210024002700EA
:1001A0002A002D0030003300010100000401070186
:1001B0000A0100002200250028002B002E0031003B
:1001C000340002010000050108010B0100002000BD
:1001D0002300260029002C002F003200000100001F
:1001E00003010601090105050505070508080808BA
:1001F000020202020A0A08080404040401010101BF
:1002000001010101030303030303030304070707B9
:100210000C0C0C0C0C0C0C0C02020202060606065E
:10022000060606060B0B0B0B0B0B0B0B010210202B
:10023000200808102040102040800201020108041C
:1002400002010102040810204080804020100804B0
:100250000201800402018040201008040201080409
:10026000020101020408102040800102040810204D
:100270004080005EBCE2613FDD83C29C7E20A3FD26
:100280001F41009D23BE46DB65F88C11AF32CA5773
:10029000E97400000A0B02090C0D0E0807030401A3
:1002A000000000000000000000000000000000004E
:1002B000000000000000000000000000000012111B
:1002C000100000000000000000000000000000001E
:1002D00000000000000000000B1011241FBECFEF33
:1002E000D1E2DEBFCDBF00E00CBF14E0A0E0B2E081
:1002F000E2E5F7E300E00BBF02C007900D92A63ED7
:10030000B107D9F726E0A6EEB4E001C01D92A73DE3
:10031000B207E1F711E0CDE6D1E000E006C0219799
:100320000109802FFE010E942318CC36D10780E0FE
:100330000807A9F70E945E100C94A71B0C940000FC
:10034000DC0180E0615090F09D919827E92FEF70DB
:10035000F0E0EE58FD4F2491E92FE295EF70F0E0C8
:10036000EE57FD4FE491822F8E27ECCF0895FC01CC
:1003700013861586148612861186108617821682B9
:100380001582148213820895DC012C911196ED914F
:10039000FC91F8948181822B81839281322F309558
:1003A0009323928387E090E00197F1F78181832383
:1003B000818383E290E00197F1F790817894EFECEC
:1003C000F0E03197F1F7922381E009F480E008959D
:1003D000FC0190810180F281E02D292F209560FFA2
:1003E00014C0F8948281822382838181892B818346
:1003F000A3E2B0E01197F1F78281982B9283789471
:1004000087ED90E00197F1F70895F89482818223B7
:1004100082838181892B8183AFEFB0E01197F1F75F
:100420008281982B928378948FE090E0EBCFDF92DB
:10043000EF92FF920F931F93CF93DF93EC01D62E91
:10044000E42E08E010E0FF24F39461E08D2D8F216D
:1004500009F460E0CE010E94E801FF0C015011098F
:10046000A1F7E11010C0F894E981FA8191818881A7
:10047000809589238183E981FA81928188818095A1
:10048000892382837894DF91CF911F910F91FF9000
:10049000EF90DF900895EF92FF920F931F93CF9309
:1004A000DF938C017B0140E065E50E941702E701C4
:1004B00088E0E80EF11C699140E0C8010E94170233
:1004C000CE15DF05C1F7DF91CF911F910F91FF90FE
:1004D000EF900895FC0190810180F281E02DF89465
:1004E0008181292F20958223818378943DE743E001
:1004F00050E0315029F1DA011197F1F78081892319
:10050000C1F3F8948281822382838181892B818344
:100510007894ABE7B7E01197F1F7F89481818223E3
:100520008183A3E1B1E01197F1F78081982381E005
:1005300009F080E07894E3E6F6E03197F1F708956A
:1005400080E008954F925F926F927F928F929F9278
:10055000AF92BF92CF92DF92EF92FF920F931F93D1
:10056000CF93DF938C017B01EA01FC0181859285A9
:100570000E946A028823D9F1B701F801818592852A
:100580000E944B0240E06EEBF801818592850E944B
:1005900017026E015E01F9E0AF0EB11C7E01F80199
:1005A0008184928488E0682E712C512C44244394D9
:1005B000C4010E94C40181115428440CF1E06F1A57
:1005C0007108B1F7F70151927F01AE16BF0639F7F6
:1005D000F801818592850E946A02813041F4F6011A
:1005E00081916F01811105C0EE15FF05C1F790E003
:1005F00008C068E0CE010E94A00191E02885281380
:10060000F6CF892FDF91CF911F910F91FF90EF903F
:10061000DF90CF90BF90AF909F908F907F906F9022
:100620005F904F9008958150823108F05AC0E82FB2
:10063000F0E08827E15EFC4F8F4F0C9423183F03B6
:100640004303310337033B03710346034C03500359
:1006500056035A035E036403680371036C03720359
:100660007603809180008F77809380000895809139
:1006700080008F7DF9CF80918000877FF5CF84B592
:100680008F7784BD089584B58F7DFBCF8091B000B6
:100690008F778093B00008958091B0008F7DF9CF5F
:1006A000809190008F7780939000089580919000C2
:1006B0008F7DF9CF80919000877FF5CF8091A0004A
:1006C0008F778093A00008958091A0008F7DF9CF4F
:1006D0008091A000877FF5CF809120018F77809354
:1006E00020010895809120018F7DF9CF8091200114
:1006F000877FF5CFCF93DF93282F30E0F901EE56B7
:10070000FD4F8491F901E45DFD4FD491F901EA5167
:10071000FE4FC491CC23A1F081110E941303EC2F52
:10072000F0E0EE0FFF1FE453FE4FA591B491EC9162
:10073000ED2381E090E009F480E0DF91CF9108950E
:1007400080E090E0FACF1F93CF93DF93282F30E023
:10075000F901EE56FD4F8491F901E45DFD4FD4910E
:10076000F901EA51FE4FC491CC23A9F0162F811153
:100770000E941303EC2FF0E0EE0FFF1FEE54FE4F2C
:10078000A591B4918FB7F894EC91111108C0D09550
:10079000DE23DC938FBFDF91CF911F910895DE2B75
:1007A000F8CFCF93DF9390E0FC01E45DFD4F2491FF
:1007B0008A519E4FFC0184918823D1F090E0880FEC
:1007C000991FFC01E856FE4FA591B491FC01EE542F
:1007D000FE4FC591D49161110EC09FB7F8948C91D2
:1007E000E22FE0958E238C932881E223E8839FBF3C
:1007F000DF91CF9108958FB7F894EC91E22BEC93B1
:100800008FBFF6CFCF93DF93EC0161E088E00E94C9
:10081000D103209731F460E088E0DF91CF910C9410
:10082000A303CF3FD10511F461E0F6CFEAE9F2E08E
:10083000E491E150E23108F0B2C0F0E08827EC5DCD
:10084000FB4F8F4F0C94231836043D0442044C0494
:100850005604CF046004680470047A0484048E048F
:100860009D04A704CF04B104BB04C50484B580680B
:1008700084BDC7BDDF91CF91089584B5806284BDEA
:10088000C8BDF8CF80918000806880938000D093AD
:100890008900C0938800EECF8091800080628093B1
:1008A0008000D0938B00C0938A00E4CF80918000B9
:1008B000886080938000D0938D00C0938C00DACF45
:1008C0008091B00080688093B000C093B300D2CF15
:1008D0008091B00080628093B000C093B400CACF12
:1008E00080919000806880939000D0939900C0938D
:1008F0009800C0CF80919000806280939000D09348
:100900009B00C0939A00B6CF80919000886080933E
:100910009000D0939D00C0939C00ACCF8091A0002C
:1009200080688093A0008091A0008F7B8093A000BE
:10093000D093A900C093A8009DCF8091A0008062B1
:100940008093A000D093AB00C093AA0093CF809176
:10095000A00088608093A000D093AD00C093AC004D
:1009600089CF80912001806880932001D093290154
:10097000C09328017FCF8091200180628093200165
:10098000D0932B01C0932A0175CF809120018860FC
:1009900080932001D0932D01C0932C016BCFC038E0
:1009A000D1050CF041CF37CF863308F08653209124
:1009B0007B00982F9870277F922B90937B008770F5
:1009C000806480937C0080917A00806480937A00B8
:1009D00080917A0086FDFCCF80917800909179001B
:1009E00008953FB7F8948091950590919605A09150
:1009F0009705B091980526B5A89B05C02F3F19F023
:100A00000196A11DB11D3FBFBA2FA92F982F88278E
:100A1000BC01CD01620F711D811D911D42E0660F69
:100A2000771F881F991F4A95D1F708958F929F923B
:100A3000AF92BF92CF92DF92EF92FF926B017C0157
:100A40000E94F1044B015C01C114D104E104F104E2
:100A5000B9F00E94F104681979098A099B09683E76
:100A600073408105910580F321E0C21AD108E108A5
:100A7000F10888EE880E83E0981EA11CB11CE4CF1B
:100A8000FF90EF90DF90CF90BF90AF909F908F90AE
:100A900008952FB7F8946091910570919205809117
:100AA0009305909194052FBF08950895AF92BF923A
:100AB000CF92DF92EF92FF920F931F93CF93DF932A
:100AC0006C017B018B01040F151FEB015E01AE1859
:100AD000BF08C017D10759F06991D601ED91FC917B
:100AE0000190F081E02DC6011995892B79F7C50198
:100AF000DF91CF911F910F91FF90EF90DF90CF90FA
:100B0000BF90AF900895FC01538D448D252F30E0A8
:100B1000842F90E0821B930B541710F0CF9608950A
:100B200001970895FC01918D828D981761F0A28D37
:100B3000AE0FBF2FB11D5D968C91928D9F5F9F73FD
:100B4000928F90E008958FEF9FEF0895FC01918DB3
:100B5000828D981731F0828DE80FF11D858D90E020
:100B600008958FEF9FEF0895FC01918D228D892FBD
:100B700090E0805C9F4F821B91098F7399270895A5
:100B800089E995E00E94B40521E0892B09F420E071
:100B9000822F089586E396E00E94B40521E0892B18
:100BA00009F420E0822F0895FC01A48DA80FB92F2D
:100BB000B11DA35ABF4F2C91848D90E001968F7385
:100BC0009927848FA689B7892C93A089B1898C91A4
:100BD000837080648C93938D848D981306C00288F3
:100BE000F389E02D80818F7D80830895EF92FF92BD
:100BF0000F931F93CF93DF93EC0181E0888F9B8D40
:100C00008C8D98131AC0E889F989808185FF15C0F9
:100C10009FB7F894EE89FF896083E889F98980811C
:100C20008370806480839FBF81E090E0DF91CF91EB
:100C30001F910F91FF90EF900895F62E0B8D10E00D
:100C40000F5F1F4F0F731127E02E8C8D8E110CC07C
:100C50000FB607FCFACFE889F989808185FFF5CFC7
:100C6000CE010E94D405F1CFEB8DEC0FFD2FF11DCD
:100C7000E35AFF4FF0829FB7F8940B8FEA89FB8904
:100C800080818062CFCFCF93DF93EC01888D882362
:100C9000B9F0AA89BB89E889F9898C9185FD03C0DF
:100CA000808186FD0DC00FB607FCF7CF8C9185FFC4
:100CB000F2CF808185FFEDCFCE010E94D405E9CF30
:100CC000DF91CF91089580E090E0892B29F00E9478
:100CD000CA0581110E94000080E090E0892B49F054
:100CE00080E090E0892B29F00E94000081110E9491
:100CF000000080E090E0892B29F00E94C00581115E
:100D00000E94000080E090E0892B49F080E090E0B4
:100D1000892B29F00E94000081110C940000089595
:100D2000CF92DF92EF92FF920F931F93CF93DF93B7
:100D300029E0289FF001299FF00D1124E650FB4F78
:100D40002085211146C08C01FC01EE0FFF1FEA50E7
:100D5000FB4FC081D18189859A850E946A0240E05B
:100D60006CEC89859A850E941702488164E4898524
:100D70009A850E9417020E9449056B017C018C81B3
:100D80008823B9F08D81882369F1888181112AC077
:100D900089859A850E94C401813059F00E944905D5
:100DA0006C197D098E099F096E3E7240810591057F
:100DB00078F30E94490529E0209FF001219FF00D62
:100DC0001124E650FB4F648375838683978381E00B
:100DD0008087DF91CF911F910F91FF90EF90DF906F
:100DE000CF900895EB81E9508EEE92E0E33038F435
:100DF000F0E0EE0FFF1FE35EFD4F808191816C01FB
:100E0000F12CE12C8981882321F060E08A810E9405
:100E1000A303C701B6010E9416058981882349F200
:100E200061E08A810E94A303C4CF83E00E947A0319
:100E30000197A1F48091200590912105A0912205B0
:100E4000B09123050196A11DB11D809320059093BB
:100E50002105A0932205B0932305089580912005D4
:100E600090912105A0912205B09123050197A10938
:100E7000B109EBCF83E10E947A030197A1F480913D
:100E8000100590911105A0911205B09113050197DD
:100E9000A109B1098093100590931105A093120543
:100EA000B093130508958091100590911105A091BC
:100EB0001205B09113050196A11DB11DEBCF4F9204
:100EC0005F926F927F928F929F92AF92BF92CF92DA
:100ED000DF92EF92FF920F931F93CF93DF9300D097
:100EE00000D000D01F92CDB7DEB729E0289FA00127
:100EF000299F500D1124415D5D4F5A874987DA01C2
:100F000011962D913D914D915C91149729833A83CF
:100F10004B835C831596CD90DD90ED90FC901897F7
:100F200026E0289F8001299F100D11240A511B4F94
:100F3000F80160817181072E000C880B990B0E94CB
:100F40005B192B013C01D80112962D913D914D91D9
:100F50005C9115972D833E834F835887E985FA85E9
:100F600080810E94D404BC0190E080E00E94591965
:100F700020E030E040E85AE30E94101A20E030E020
:100F800040EA50E40E94101A4B015C0120E030E07E
:100F900040E85AE3C301B2010E94101A20E030E099
:100FA00040EA50E40E94101A9B01AC01C501B40153
:100FB0000E943F1829813A814B815C810E94B118BF
:100FC000A70196010E94101A4B015C01A70196012E
:100FD00060E070E080E89FE30E943F182D813E8131
:100FE0004F8158850E94101A9B01AC01C501B401C4
:100FF0000E944018D80112966D937D938D939C9317
:1010000015972A960FB6F894DEBF0FBECDBFDF91BD
:10101000CF911F910F91FF90EF90DF90CF90BF90F5
:10102000AF909F908F907F906F905F904F900895BA
:10103000BF92CF92DF92EF92FF920F931F93CF93C5
:10104000DF938C0189E0809FF001819FF00D1124D6
:10105000E15DFD4FB080C4EFD1E0C12CD12C760111
:101060008B2D0E94D404BC01990F880B990B0E9410
:101070005B199B01AC01C701B6010E9440186B01CE
:101080007C01219769F786E0809FE001819FD00D68
:101090001124CA51DB4F20E030E04AEF53E4C7018E
:1010A000B6010E94B1180E9423197983688381E0F8
:1010B000DF91CF911F910F91FF90EF90DF90CF9034
:1010C000BF900895FC0101900020E9F73197AF012E
:1010D000481B590BBC0186E396E00C9456058F9291
:1010E0009F92AF92BF920F931F93CF93DF93CDB791
:1010F000DEB7A1970FB6F894DEBF0FBECDBF19A221
:10110000423008F44AE08E010F5D1F4F842E912C6F
:10111000B12CA12CA50194010E94DE17E62FB90184
:10112000CA01EA30F4F4E05DD801EE938D01232B7F
:10113000242B252B79F790E080E0109719F0CD0152
:101140000E946208A1960FB6F894DEBF0FBECDBF15
:10115000DF91CF911F910F91BF90AF909F908F9093
:101160000895E95CE1CFCF93DF930E946208EC0120
:1011700083E592E00E9462088C0F9D1FDF91CF9162
:1011800008950C946208BF92CF92DF92EF92FF9283
:101190000F931F93CF93DF93EC01B62EC72E8D854F
:1011A000811105C0CE010E946A0281110EC01B860A
:1011B0001D861C8680E0DF91CF911F910F91FF90DB
:1011C000EF90DF90CF90BF90089540E060EFCE01A8
:1011D0000E94170201E0E12CD12C11E0CE010E9407
:1011E000C401F82ECE010E94C40191E0F91218C08A
:1011F000813099F51134D8F2DB86D11002C081E03C
:101200008D878B81882399F22396EB2DFC2DCF01BE
:10121000089629912193E817F907D9F781E0CBCFF8
:10122000EE2DF0E0F8120FC08B851817A0F4DE0148
:10123000AE0FBF1F13968C91802379F4F12C1930D7
:1012400008F41C87D12EEC0FFD1F8381902F909501
:10125000892383830AC08113F1CFFE01EE0DF11DB6
:101260008381802B8383FF24F3946F2DCE010E9412
:10127000E8011F5F000F11F4E39401E087E08E1591
:1012800008F0ACCFB7CF2F923F924F925F926F9200
:101290007F928F929F92AF92BF92CF92DF92EF9206
:1012A000FF920F931F93CF93DF93CDB7DEB7619774
:1012B0000FB6F894DEBF0FBECDBF8C0189E0809FD2
:1012C000F001819FF00D1124E650FB4F80858823AB
:1012D00009F4D7C086E0809FF001819FF00D1124B2
:1012E000ED5DFD4FE181E950BEEEEB2EB2E0FB2E4D
:1012F000E33038F4F0E0EE0FFF1FE35EFD4FE080D7
:10130000F1800E94490529E0209FF001219FF00D06
:101310001124E650FB4F84809580A680B780AB01F6
:10132000BC01481959096A097B09C701B0E0A0E06E
:10133000481759076A077B0708F4A3C0F801EE0FA6
:10134000FF1FEA50FB4FE080F180F7018185928515
:101350000E94B701BE01665F7F4FF70181859285CC
:101360000E94C308882309F483C067E0CE010A966F
:101370000E94A001998989137BC0AE014F5F5F4F26
:10138000BE01665F7F4FC7010E94A202882309F455
:101390006FC02A8160E070E0CB0127FF04C060E0ED
:1013A00070E088EF9FEF3A8589803B3309F08EC06B
:1013B0004D8147FF8BC080FC5BC0912CB12CA12CD0
:1013C00053E0880C991CAA1CBB1C5A95D1F77501D7
:1013D0006401F0EECF22F7E0DF22EE24FF24822E1C
:1013E000912CB12CA12CEBE0880C991CAA1CBB1CE5
:1013F000EA95D1F78C289D28AE28BF28682979293D
:101400008A299B296138F4EE7F07FFEF8F079F073A
:101410007CF10E945B1920E030E040E05CE30E9438
:10142000101A6B017C0120E030E04EEF52EC0E947C
:10143000AC188823E9F029E0209FC001219F900D7E
:1014400011249C0126503B4F1901F9014080518025
:101450006280738020E030E0A901C301B2010E94E4
:10146000AC18811179C0F101C082D182E282F3828D
:1014700089E0809FF001819FF00D1124E650FB4F21
:10148000108689E0809FF001819FF00D1124E650C5
:10149000FB4F608171818281938161960FB6F894D0
:1014A000DEBF0FBECDBFDF91CF911F910F91FF9097
:1014B000EF90DF90CF90BF90AF909F908F907F90F4
:1014C0006F905F904F903F902F900895C22ED12C37
:1014D000DC2CCC24DD0CDD0CDD0C28E0829E4001F0
:1014E0001124C828D9280D2C000CEE08FF086C29FF
:1014F0007D298E299F29303109F084CF2885222328
:1015000009F480CF6B017C0183E0CC0CDD1CEE1C68
:10151000FF1C8A95D1F730E8C32237E0E322FF248D
:1015200080E2C81AD108E108F108622F70E08F81CB
:10153000FB01E81BF109CF019695982F8827979515
:1015400087950E940F18072E000C880B990B6C0DC5
:101550007D1D8E1D9F1D56CF86E0809FF001819FCF
:10156000F00D1124ED5DFD4F82809380A480B58045
:10157000A501940160E070E080E89FE30E943F18BD
:10158000A30192010E94101A2B013C01A7019601B0
:10159000C501B4010E94101A9B01AC01C301B20144
:1015A0000E944018F101608371838283938360CF2E
:1015B0004F925F926F927F928F929F92AF92BF9263
:1015C000CF92DF92EF92FF92CF936B017C01842E3A
:1015D000AC019B010E947D1A882389F086E592E088
:1015E000CF91FF90EF90DF90CF90BF90AF909F9002
:1015F0008F907F906F905F904F900C9462082601BF
:101600003701E89477F82FEF3FEF4FE75FE7C3012B
:10161000B2010E947D1A81110DC02FEF3FEF4FE7FD
:101620005FE7C301B2010E94AC1818161CF48AE5EA
:1016300092E0D6CF2FEF3FEF4FE75FE4C701B6014F
:101640000E940B1A18161CF48EE592E0C9CF2FEFFA
:101650003FEF4FE75FECC701B6010E94AC1887FD72
:10166000F3CF20E030E0A901C701B6010E94AC1819
:10167000B12CA12C87FF0AC06DE286E396E00E94A0
:10168000F6055C01F7FAF094F7F8F094C82D60E0E5
:1016900070E080E09FE3912C20E030E040E251E4F4
:1016A0000E94B11893949814B8F3A70196010E9470
:1016B00040182B013C010E942A196B017C010E94F9
:1016C00059199B01AC01C301B2010E943F182B01C3
:1016D0003C014AE0C701B6010E946F087C016EE23E
:1016E00086E396E00E94F605E80EF91EEA0CFB1C64
:1016F000C15018F120E030E040E251E4C301B201F2
:101700000E94101A2B013C010E942A194B01B12C96
:10171000A12C4AE0C501B4010E946F08E80EF91E31
:10172000C501B4010E9459199B01AC01C301B2016A
:101730000E943F182B013C01DBCFC701CF91FF90E6
:10174000EF90DF90CF90BF90AF909F908F907F9061
:101750006F905F904F9008959F92AF92BF92CF92FB
:10176000DF92EF92FF920F931F93CF93DF93CDB74A
:10177000DEB761970FB6F894DEBF0FBECDBF6C0128
:101780007C01EE0CFF1CC7018E509B4F5C01DC01FD
:101790008D919C91892B09F046C08EE090E00E94CB
:1017A000821A8C0186E08C9DF0018D9DF00D112434
:1017B000ED5DFD4F908060E0892D0E94D103892D61
:1017C00090E0FC01E45DFD4FE491D801EC93FC0155
:1017D000EA51FE4FE491F0E0EE0FFF1FE453FE4F9D
:1017E00085919491F80192838183C8010E94B70189
:1017F000D5010D931C9387E190E00E94821AFC01B1
:10180000168A158A11821287018717821086108224
:1018100089E0838381E0848385838683D701AA500E
:10182000BB4FED93FC93F701EA50FB4F0081118110
:10183000F801818592850E94B701D80117961C9204
:10184000179718961C92BB24B394BE01665F7F4F16
:10185000F801818592850E94C308882309F477C026
:1018600067E0CE010A960E94A00199898913EDCF05
:10187000D80117968C9117978F5F17968C938A854E
:10188000883231F008F04AC0803111F08232E9F636
:10189000F80180858F5F80878081811124C08185D8
:1018A00092850E946A02BE01665F7F4FD801199639
:1018B0008D919C910E944B0240E064EBF801818580
:1018C00092850E941702D80119968D919C910E94D1
:1018D000C401A82EF801818592850E946A02A11098
:1018E00002C0D801BC928A85803119F1AE014F5FE8
:1018F0005F4FBE01665F7F4FC8010E94A20288232E
:1019000059F08D819A859B3311F487FD12C08F3376
:1019100091F058F48F31B9F080E00EC08B3309F4A8
:10192000B7CF823409F091CFB3CF8F3571F08F37B5
:1019300099F78CE001C08AE0F8019381981708F0CC
:1019400084CF838382CF89E0F7CF8BE0F5CFF70197
:10195000EA50FB4F0081118186E08C9DF0018D9D46
:10196000F00D1124ED5DFD4F81818D3008F08CE08C
:10197000893008F489E0D80113968C93139719964F
:101980008D919C910E94B701A12CF8018781A81626
:1019900008F0B5C0BE01665F7F4F818592850E94C9
:1019A000C308882309F48AC067E0CE010A960E9422
:1019B000A0019989891382C08A85803109F47EC08B
:1019C000D8011396BC90AE014F5F5F4FBE01665FBA
:1019D0007F4FC8010E94A202882309F46FC09D8135
:1019E0008A858B3311F497FD69C0EB2DED3008F437
:1019F00067C0ECE0EA508FE1E33020F4F0E0E65E0F
:101A0000FD4F8081981709F459C08D83F8018185B5
:101A100092850E946A02BE01665F7F4FD8011996C7
:101A20008D919C910E944B0240E06EE4F80181850B
:101A300092850E94170240E06B81D80119968D9122
:101A40009C910E94170240E06C81F801818592858B
:101A50000E9417028A85803141F040E06D81D801F3
:101A600019968D919C910E941702F80181859285AB
:101A70002681222309F10E946A028823F9F0BE011F
:101A8000665F7F4FD80119968D919C910E944B0201
:101A9000F801408168E4818592850E941702D8018F
:101AA0008C91811112C064E170E080E090E00E94AE
:101AB0001605F801818592850E946A02A39465CF7C
:101AC000E93008F097CFE9E095CFF80181818823CC
:101AD00021F060E082810E94A30364E170E080E075
:101AE00090E00E941605D80111968C9111978823D9
:101AF00001F361E012968C910E94A303DACFF70103
:101B0000EA50FB4F0190F081E02D148289E08C9D1A
:101B1000F0018D9DF00D1124E650FB4F10861482CC
:101B200015821682178210821182128213826196A8
:101B30000FB6F894DEBF0FBECDBFDF91CF911F91DE
:101B40000F91FF90EF90DF90CF90BF90AF909F905C
:101B500008951F920F920FB60F9211242F933F9367
:101B60008F939F93AF93BF9380919105909192052E
:101B7000A0919305B09194053091900523E0230F37
:101B80002D3758F50196A11DB11D20939005809326
:101B9000910590939205A0939305B093940580913D
:101BA000950590919605A0919705B091980501969D
:101BB000A11DB11D8093950590939605A09397055F
:101BC000B0939805BF91AF919F918F913F912F91C5
:101BD0000F900FBE0F901F90189526E8230F0296C6
:101BE000A11DB11DD2CF1F920F920FB60F921124DB
:101BF0000BB60F922F933F934F935F936F937F9307
:101C00008F939F93AF93BF93EF93FF93E0910E0257
:101C1000F0910F021995FF91EF91BF91AF919F91B4
:101C20008F917F916F915F914F913F912F910F9085
:101C30000BBE0F900FBE0F901F9018951F920F9222
:101C40000FB60F9211240BB60F922F933F934F9321
:101C50005F936F937F938F939F93AF93BF93EF9314
:101C6000FF93E0910C02F0910D021995FF91EF9115
:101C7000BF91AF919F918F917F916F915F914F91A4
:101C80003F912F910F900BBE0F900FBE0F901F90A2
:101C900018951F920F920FB60F9211240BB60F9248
:101CA0002F933F934F935F936F937F938F939F9364
:101CB000AF93BF93EF93FF93E0910202F091030281
:101CC0001995FF91EF91BF91AF919F918F917F9166
:101CD0006F915F914F913F912F910F900BBE0F909D
:101CE0000FBE0F901F9018951F920F920FB60F9274
:101CF00011240BB60F922F933F934F935F936F93E3
:101D00007F938F939F93AF93BF93EF93FF93E09154
:101D10000002F09101021995FF91EF91BF91AF91EF
:101D20009F918F917F916F915F914F913F912F91F3
:101D30000F900BBE0F900FBE0F901F9018951F9223
:101D40000F920FB60F9211240BB60F922F933F9361
:101D50004F935F936F937F938F939F93AF93BF93B3
:101D6000EF93FF93E0910A02F0910B021995FF9116
:101D7000EF91BF91AF919F918F917F916F915F9103
:101D80004F913F912F910F900BBE0F900FBE0F9070
:101D90001F9018951F920F920FB60F9211240BB639
:101DA0000F922F933F934F935F936F937F938F93F4
:101DB0009F93AF93BF93EF93FF93E0910802F0914D
:101DC00009021995FF91EF91BF91AF919F918F916A
:101DD0007F916F915F914F913F912F910F900BBE2B
:101DE0000F900FBE0F901F9018951F920F920FB675
:101DF0000F9211240BB60F922F933F934F935F9343
:101E00006F937F938F939F93AF93BF93EF93FF93C2
:101E1000E0910602F09107021995FF91EF91BF91B1
:101E2000AF919F918F917F916F915F914F913F9172
:101E30002F910F900BBE0F900FBE0F901F90189513
:101E40001F920F920FB60F9211240BB60F922F9381
:101E50003F934F935F936F937F938F939F93AF9332
:101E6000BF93EF93FF93E0910402F091050219955F
:101E7000FF91EF91BF91AF919F918F917F916F9162
:101E80005F914F913F912F910F900BBE0F900FBE1E
:101E90000F901F9018951F920F920FB60F9211245A
:101EA0000BB60F922F933F934F935F936F937F9354
:101EB0008F939F93AF93BF93EF93FF9389E995E03F
:101EC0000E94D405FF91EF91BF91AF919F918F91A7
:101ED0007F916F915F914F913F912F910F900BBE2A
:101EE0000F900FBE0F901F9018951F920F920FB674
:101EF0000F9211240BB60F922F938F939F93EF9312
:101F0000FF93E091A905F091AA058081E091AF05CA
:101F1000F091B00582FD1DC090818091B2058F5F68
:101F20008F732091B305821741F0E091B205F0E084
:101F3000E756FA4F958F8093B205FF91EF919F91ED
:101F40008F912F910F900BBE0F900FBE0F901F908F
:101F500018958081F2CF1F920F920FB60F92112425
:101F60000BB60F922F933F934F935F936F937F9393
:101F70008F939F93AF93BF93EF93FF9386E396E086
:101F80000E94D405FF91EF91BF91AF919F918F91E6
:101F90007F916F915F914F913F912F910F900BBE69
:101FA0000F900FBE0F901F9018951F920F920FB6B3
:101FB0000F9211240BB60F922F938F939F93EF9351
:101FC000FF93E0914606F09147068081E0914C0630
:101FD000F0914D0682FD1DC0908180914F068F5F6C
:101FE0008F7320915006821741F0E0914F06F0E088
:101FF000EA5CF94F958F80934F06FF91EF919F9187
:102000008F912F910F900BBE0F900FBE0F901F90CE
:1020100018958081F2CFE9E9F5E01382128248EE4B
:1020200053E060E070E0448355836683778385E402
:1020300092E09183808325ED30E03587248724ED7D
:1020400030E03787268720ED30E0318B208B21ED83
:1020500030E0338B228B22ED30E0358B248B26ED64
:1020600030E0378B268B118E128E138E148EE6E3A2
:10207000F6E01382128244835583668377839183CB
:10208000808385EC90E09587848784EC90E0978747
:10209000868780EC90E0918B808B81EC90E0938B35
:1020A000828B82EC90E0958B848B86EC90E0978B12
:1020B000868B118E128E138E148E0895CF93DF931C
:1020C000CDB7DEB760970FB6F894DEBF0FBECDBFB9
:1020D000789484B5826084BD84B5816084BD85B503
:1020E000826085BD85B5816085BD80916E0081600F
:1020F00080936E00109281008091810082608093B5
:1021000081008091810081608093810080918000B6
:102110008160809380008091B10084608093B100E1
:102120008091B00081608093B000809191008260C6
:1021300080939100809191008160809391008091C3
:1021400090008160809390008091A10082608093D4
:10215000A1008091A10081608093A1008091A000E6
:1021600081608093A0008091210182608093210191
:102170008091210181608093210180912001816003
:102180008093200180917A00846080937A0080910E
:102190007A00826080937A0080917A0081608093D7
:1021A0007A0080917A00806880937A001092C10052
:1021B000E0914606F091470622E02083E091420636
:1021C000F09143061082E0914406F091450680E1CB
:1021D000808310924E06E0914A06F0914B0696E0FD
:1021E0009083E0914806F091490680818061808368
:1021F000E0914806F0914906808188608083E091F3
:102200004806F0914906808180688083E091480605
:10221000F091490680818F7D8083E091A905F0913E
:10222000AA052083E091A505F091A6051082E09112
:10223000A705F091A8058FEC80831092B105E0917D
:10224000AD05F091AE059083E091AB05F091AC0542
:10225000808180618083E091AB05F091AC05808145
:1022600088608083E091AB05F091AC058081806847
:102270008083E091AB05F091AC0580818F7D8083F8
:1022800060E086E30E94D10360E087E30E94D1030F
:1022900060E088E30E94D10360E089E30E94D103FB
:1022A00060E08AE30E94D10360E082E00E94D103F3
:1022B00060E083E00E94D103109220051092210576
:1022C00010922205109223050E944905609324056F
:1022D00070932505809326059093270585E197E067
:1022E000909301028093000280916A008360809342
:1022F0006A00EC9A90E080E00E94AC0B81E090E0F4
:102300000E94AC0B61E086E00E94D1031092A00015
:102310001092A1008091A00082608093A000809123
:10232000A10088618093A1008091A00080688093C3
:10233000A0008091A10081608093A10088EC91E0D1
:102340009093A7008093A6001092A9001092A80075
:1023500060E082E10E94D10360E083E10E94D1034A
:102360008AE397E090930B0280930A0280916900C0
:10237000806C80936900EB9A61E086E10E94D10352
:1023800061E088E00E94D10360E086E10E94A3033F
:1023900090E080E00E9402040E94490560931405C9
:1023A00070931505809316059093170582E692E0C9
:1023B0000E94B30890E080E00E9418088CE892E048
:1023C0000E94B30881E090E00E9418088AEA809396
:1023D0006C058BEB80936D0510926E0510926F0566
:1023E000109270051092710510927205109273058B
:1023F000109274051092750510927605109277056B
:10240000109278051092790510927A0510927B054A
:1024100010927C0510927D0510927E0510927F052A
:10242000109280051092810510928205109283050A
:1024300010928405109285051092860510928705EA
:10244000109288051092890510928A0510928B05CA
:1024500010928C0510928D0510928E0586EB92E0FD
:102460000E94B30808EC11E089E995E00E94B405E8
:10247000F0908F0518161906F4F489E995E00E948A
:102480009205833589F7F110EFCF21E020936E0597
:1024900020938F0510926B050E9449056093670594
:1024A000709368058093690590936A058DEC92E0BE
:1024B0000E94B308D9CFFF2009F482C00E944905C9
:1024C000C0906705D0906805E0906905F0906A05B6
:1024D0006C197D098E099F0968357B41810591053D
:1024E00008F005C50E944905C0901405D090150557
:1024F000E0901605F09017059B01AC012C193D09E1
:102500004E095F0969017A013AE0C316D104E1047A
:10251000F10408F455C06093140570931505809379
:10252000160590931705F8946091100570911105A8
:10253000809112059091130578940E945B1920E018
:1025400030EE49E055E40E94B1189B01AC010E94B5
:1025500040182BED3FE049E450E40E94101A9B0123
:10256000AC01209328053093290540932A05509308
:102570002B0560E070E080EE90EC0E943F184B016C
:102580005C0120E030E0A9010E940B1A18160CF43F
:102590002AC4C501B40190582DEC3CEC4CEC5DE331
:1025A0000E94AC1887FF22C490E080E00E940204E1
:1025B00080920C0590920D05A0920E05B0920F0529
:1025C0000E944905C0906305D0906405E0906505C0
:1025D000F09066056C197D098E099F0964317105BB
:1025E0008105910508F4B3C10E9449056093630514
:1025F00070936405809365059093660590E080E094
:102600000E945F0769837A838B839C83DC01CB0103
:10261000B05880935F0590936005A0936105B093D7
:10262000620581E090E00E945F072B013C01DC0124
:10263000CB01B05880935B0590935C05A0935D053A
:10264000B0935E0588E30E94D404BC0190E080E072
:102650000E94591920E030E040E85AE30E94101A25
:1026600020E030E040EA50E40E94101A2AEB38EEF5
:1026700042EB51E40E94101A6D837E838F8398870A
:1026800060935705709358058093590590935A05A8
:1026900089E30E94D4046C018AE30E94D4047C0183
:1026A000B60190E080E00E94591920E030E040E857
:1026B0005AE30E94101A20E030E040EA50E40E9401
:1026C000101A2DEC3CEC4CEC5DE30E94101A4B010F
:1026D0005C0126E636E646E65FE360911C057091F4
:1026E0001D0580911E0590911F050E94101A9B01E7
:1026F000AC01C501B4010E9440184B015C018092FD
:102700001C0590921D05A0921E05B0921F05B701F1
:1027100090E080E00E94591920E030E040E85AE360
:102720000E94101A20E030E040EA50E40E94101AA3
:102730002DEC3CEC4CEC5DE30E94101A6B017C012B
:1027400026E636E646E65FE36091180570911905C6
:1027500080911A0590911B050E94101A9B01AC01F3
:10276000C701B6010E9440189B01AC0120931805D7
:102770003093190540931A0550931B05C501B40108
:102780000E943F1820E030E04AEF52E40E94101A05
:102790006B017C01DC01CB01B05880935305909311
:1027A0005405A0935505B0935605A7019601C301A2
:1027B000B2010E94101A4B015C0180924F05909269
:1027C0005005A0925105B092520590E080E00E9421
:1027D000900681E090E00E94900690E080E00E94E8
:1027E000430969877A878B879C8781E090E00E9404
:1027F00043096D877E878F87988BA501940160912F
:102800004B0570914C0580914D0590914E050E94AD
:10281000401860934B0570934C0580934D05909341
:102820004E05A30192016091470570914805809182
:10283000490590914A050E943F186093470570939F
:1028400048058093490590934A05A7019601609138
:1028500043057091440580914505909146050E947D
:102860003F1860934305709344058093450590930A
:10287000460529813A814B815C8160913F057091C9
:10288000400580914105909142050E943F18609358
:102890003F057093400580934105909342052D813B
:1028A0003E814F81588560913B0570913C05809138
:1028B0003D0590913E050E94401860933B05709342
:1028C0003C0580933D0590933E0520E030E0A90152
:1028D00060913705709138058091390590913A05DE
:1028E0000E9440186093370570933805809339052E
:1028F00090933A052D853E854F85588969857A855F
:102900008B859C850E94401820E030E040E05FE32A
:102910000E94101A9B01AC0160913305709134053F
:1029200080913505909136050E94401860933305DB
:102930007093340580933505909336058091310569
:1029400090913205019690933205809331050E9453
:102950004905C0902D05D0902E05E0902F05F090F0
:1029600030056C197D098E099F09643F714081050E
:10297000910508F435C20E94490560932D057093B6
:102980002E0580932F05909330058091310590910D
:102990003205892B09F424C20E9449054B015C01D0
:1029A00040912405509125056091260570912705D9
:1029B0007C016401C41AD50AE60AF70A60E070E0F7
:1029C000CB01E1F1F894609120057091210580918F
:1029D0002205909123051092200510922105109256
:1029E0002205109223057894809224059092250563
:1029F000A0922605B09227050E945B1920E030E0E6
:102A000046E154E40E94B1184B015C01C701B601D4
:102A10000E9459199B01AC0160E070E68AE697E4D8
:102A20000E94B1189B01AC01C501B4010E94101AAB
:102A300020E030E040EC5FE30E94101A60936F05E5
:102A400070937005809371059093720560913105C4
:102A50007091320590E080E00E9459196B017C0171
:102A6000AC019B0160914B0570914C0580914D0527
:102A700090914E050E94B118609373057093740590
:102A80008093750590937605A7019601609147059F
:102A9000709148058091490590914A050E94B118AE
:102AA00060937705709378058093790590937A0504
:102AB000A7019601609143057091440580914505F9
:102AC000909146050E94B11860937B0570937C0538
:102AD00080937D0590937E05A701960160913F0547
:102AE0007091400580914105909142050E94B11876
:102AF00060937F0570938005809381059093820594
:102B0000A701960160913B0570913C0580913D05C0
:102B100090913E050E94B1186093830570938405DF
:102B20008093850590938605A701960160913705EE
:102B3000709138058091390590913A050E94B1183D
:102B400060938705709388058093890590938A0523
:102B5000A701960160913305709134058091350588
:102B6000909136050E94B11860938B0570938C0587
:102B700080938D0590938E0580912C058F5F8093B7
:102B80002C05853070F01093A9000093A8001092D6
:102B9000100210921102109212021092130210925F
:102BA0002C0543E250E06CE675E089E995E00E946F
:102BB000560584E193E00E94B30885E593E00E9406
:102BC000C10860918305709184058091850590917D
:102BD000860542E050E00E94D80A8AE693E00E940F
:102BE000C10860917F057091800580918105909169
:102BF000820542E050E00E94D80A84E793E00E94F8
:102C0000B30887E793E00E94C10860917B0570914B
:102C10007C0580917D0590917E0542E050E00E9408
:102C2000D80A8AE693E00E94C10860917705709106
:102C300078058091790590917A0542E050E00E94F4
:102C4000D80A84E793E00E94B3088CE893E00E94DE
:102C5000C10860917305709174058091750590911C
:102C6000760542E050E00E94D80A81EA93E00E9493
:102C7000B30884EA93E00E94C10860916F057091E7
:102C80007005809171059091720542E050E00E94BC
:102C9000D80A89EB93E00E94B3088EEB93E00E9480
:102CA000C108609187057091880580918905909190
:102CB0008A0541E050E00E94D80A83ED93E00E942B
:102CC000C10860918B0570918C0580918D05909164
:102CD0008E0541E050E00E94D80A8EED93E00E94FC
:102CE000B30883EE93E00E94C10820E030E048EC96
:102CF00052E4609110027091110280911202909141
:102D000013020E94101A41E050E00E94D80A88EF96
:102D100093E00E94C1084AE060E070E0CB010E94AD
:102D20006F088BE094E00E94C1084AE068EC71E013
:102D300080E090E00E946F088FE094E00E94B3086A
:102D400081E194E00E94C10880918F058111E3C068
:102D500086E294E00E94B30885E594E00E94B308FF
:102D600083E592E00E94620810924B0510924C0598
:102D700010924D0510924E0510924705109248058D
:102D80001092490510924A0510924305109244058D
:102D9000109245051092460510923F05109240058D
:102DA000109241051092420510923B0510923C058D
:102DB00010923D0510923E0510923705109238058D
:102DC0001092390510923A0510923305109234058D
:102DD0001092350510923605109232051092310589
:102DE0000E94630641CBC501B401D6CB20910C05EE
:102DF00030910D0540910E0550910F05C501B401AC
:102E00000E943F182AE037ED43E25CE30E94B118CC
:102E10002EE93FEE47EA5CE30E94101A6B017C0149
:102E200024E63BE343E850E4C501B4010E94101AD4
:102E30009B01AC01C701B6010E9440186B017C01E7
:102E400020E030E040E451EC0E94AC1887FD40C027
:102E500020E030E040E451E4C701B6010E940B1AC3
:102E600018165CF020E030E0A901C701B6010E940D
:102E70000B1A87FF08C061E007C0C12CD12C90E479
:102E8000E92E91E4F92E60E086E10E94A30320E0A0
:102E900030E0A901C701B6010E940B1A1816FCF414
:102EA00020E030E04AE754E4C701B6010E94101A5E
:102EB0000E942319AFEFB0E09B01AC010E94D31731
:102EC00020EE3EE240E050E00E94B417C9016ECB14
:102ED000C12CD12C80E4E82E81ECF82ECCCFC70198
:102EE000B601905820E030E04AE754E4DFCF80910B
:102EF0006B05811165CB90E080E00E94020460E0E8
:102F000086E10E94A30341E040936B0588EE92E0C6
:102F10000E94B30855CB81E394E00E94C108609100
:102F200028057091290580912A0590912B0543E091
:102F300050E00E94D80A85E494E00E94C1082091E4
:102F400028053091290540912A0550912B0560E014
:102F500070E080EE90EC0E943F1843E050E00E9449
:102F6000D80A80E594E0F6CE052E97FB1EF4009477
:102F70000E94CB1757FD07D00E94DE1707FC03D035
:102F80004EF40C94CB1750954095309521953F4FBA
:102F90004F4F5F4F089590958095709561957F4F45
:102FA0008F4F9F4F08950E940018A59F900DB49FCA
:102FB000900DA49F800D911D11240895A1E21A2E59
:102FC000AA1BBB1BFD010DC0AA1FBB1FEE1FFF1FCD
:102FD000A217B307E407F50720F0A21BB30BE40B1D
:102FE000F50B661F771F881F991F1A9469F7609564
:102FF0007095809590959B01AC01BD01CF0108951E
:10300000A29FB001B39FC001A39F700D811D112429
:10301000911DB29F700D811D1124911D089597FB84
:10302000072E16F4009407D077FD09D00E942B18C4
:1030300007FC05D03EF4909581959F4F08957095BB
:1030400061957F4F0895EE0FFF1F881F8BBF07907C
:10305000F691E02D1994AA1BBB1B51E107C0AA1FD2
:10306000BB1FA617B70710F0A61BB70B881F991F29
:103070005A95A9F780959095BC01CD0108955058B7
:10308000BB27AA270E9457180C94D1190E94C31974
:1030900038F00E94CA1920F039F49F3F19F426F441
:1030A0000C94C0190EF4E095E7FB0C94BA19E92FC3
:1030B0000E94E21958F3BA1762077307840795074D
:1030C00020F079F4A6F50C94041A0EF4E0950B2E7A
:1030D000BA2FA02D0B01B90190010C01CA01A0016A
:1030E0001124FF27591B99F0593F50F4503E68F1C5
:1030F0001A16F040A22F232F342F4427585FF3CF06
:10310000469537952795A795F0405395C9F77EF4D6
:103110001F16BA0B620B730B840BBAF09150A1F01F
:10312000FF0FBB1F661F771F881FC2F70EC0BA0FA5
:10313000621F731F841F48F4879577956795B7952D
:10314000F7959E3F08F0B0CF9395880F08F0992728
:10315000EE0F9795879508950E94961908F481E0DF
:1031600008950E94C5180C94D1190E94CA1958F0EC
:103170000E94C31940F029F45F3F29F00C94BA195A
:1031800051110C94051A0C94C0190E94E21968F3AD
:103190009923B1F3552391F3951B550BBB27AA2710
:1031A00062177307840738F09F5F5F4F220F331F4A
:1031B000441FAA1FA9F335D00E2E3AF0E0E832D012
:1031C00091505040E695001CCAF72BD0FE2F29D015
:1031D000660F771F881FBB1F261737074807AB07E7
:1031E000B0E809F0BB0B802DBF01FF2793585F4F5C
:1031F0003AF09E3F510578F00C94BA190C94051AD8
:103200005F3FE4F3983ED4F3869577956795B7953D
:10321000F7959F5FC9F7880F911D9695879597F948
:103220000895E1E0660F771F881FBB1F62177307C1
:103230008407BA0720F0621B730B840BBA0BEE1FD6
:1032400088F7E09508950E942A196894B1110C94AA
:10325000051A08950E94EA1988F09F5798F0B92F2F
:103260009927B751B0F0E1F0660F771F881F991FBB
:103270001AF0BA95C9F714C0B13091F00E94041A3F
:10328000B1E008950C94041A672F782F8827B85F4F
:1032900039F0B93FCCF3869577956795B395D9F713
:1032A0003EF490958095709561957F4F8F4F9F4F1D
:1032B0000895E89409C097FB3EF490958095709529
:1032C00061957F4F8F4F9F4F9923A9F0F92F96E972
:1032D000BB279395F695879577956795B795F111E7
:1032E000F8CFFAF4BB0F11F460FF1BC06F5F7F4F84
:1032F0008F4F9F4F16C0882311F096E911C0772396
:1033000021F09EE8872F762F05C0662371F096E89E
:10331000862F70E060E02AF09A95660F771F881F6D
:10332000DAF7880F9695879597F90895990F000811
:10333000550FAA0BE0E8FEEF16161706E807F90787
:10334000C0F012161306E407F50798F0621B730B22
:10335000840B950B39F40A2661F0232B242B252BA3
:1033600021F408950A2609F4A140A6958FEF811D46
:10337000811D089597F99F6780E870E060E00895E7
:103380009FEF80EC089500240A941616170618067D
:103390000906089500240A94121613061406050659
:1033A0000895092E0394000C11F4882352F0BB0FEA
:1033B00040F4BF2B11F460FF04C06F5F7F4F8F4F4D
:1033C0009F4F089557FD9058440F551F59F05F3F88
:1033D00071F04795880F97FB991F61F09F3F79F037
:1033E00087950895121613061406551FF2CF4695B9
:1033F000F1DF08C0161617061806991FF1CF86953B
:103400007105610508940895E894BB27662777271E
:10341000CB0197F908950E94961908F48FEF08954B
:103420000E94231A0C94D1190E94C31938F00E94EB
:10343000CA1920F0952311F00C94BA190C94C019F4
:1034400011240C94051A0E94E21970F3959FC1F3A0
:10345000950F50E0551F629FF001729FBB27F00D42
:10346000B11D639FAA27F00DB11DAA1F649F662797
:10347000B00DA11D661F829F2227B00DA11D621FE6
:10348000739FB00DA11D621F839FA00D611D221FA0
:10349000749F3327A00D611D231F849F600D211D84
:1034A000822F762F6A2F11249F5750409AF0F1F007
:1034B00088234AF0EE0FFF1FBB1F661F771F881F70
:1034C00091505040A9F79E3F510580F00C94BA19D5
:1034D0000C94051A5F3FE4F3983ED4F386957795F4
:1034E0006795B795F795E7959F5FC1F7FE2B880F16
:1034F000911D9695879597F908950E949619880BC6
:10350000990B08950F931F93CF93DF93823091050A
:1035100010F482E090E0E091D506F091D60630E01C
:1035200020E0B0E0A0E0309799F42115310509F4CE
:103530004AC0281B390B24303105D8F58A819B817C
:103540006115710589F1FB0193838283FE0111C02E
:10355000408151810281138148175907E0F04817D3
:10356000590799F4109761F012960C9312971396DD
:103570001C933296CF01DF91CF911F910F91089547
:103580000093D5061093D606F4CF2115310551F0DE
:103590004217530738F0A901DB019A01BD01DF0191
:1035A000F801C1CFEF01F9CF9093D6068093D506ED
:1035B000CDCFFE01E20FF31F819391932250310989
:1035C00039832883D7CF2091D3063091D406232B7B
:1035D00041F420911602309117023093D4062093C3
:1035E000D30620911402309115022115310541F4C2
:1035F0002DB73EB74091180250911902241B350B8C
:10360000E091D306F091D406E217F307A0F42E1B45
:103610003F0B2817390778F0AC014E5F5F4F241736
:10362000350748F04E0F5F1F5093D4064093D306E2
:10363000819391939FCFF0E0E0E09CCFCF93DF9315
:103640000097E9F0FC01329713821282A091D5060F
:10365000B091D606ED0130E020E01097A1F4208172
:103660003181820F931F2091D3063091D406281701
:10367000390709F061C0F093D406E093D306DF91D7
:10368000CF910895EA01CE17DF07E8F54A815B8103
:103690009E0141155105B1F7E901FB83EA83499188
:1036A0005991C40FD51FEC17FD0761F480819181FA
:1036B0000296840F951FE901998388838281938103
:1036C0009B838A83F0E0E0E012968D919C911397A2
:1036D0000097B9F52D913C911197CD010296820F7B
:1036E000931F2091D3063091D4062817390739F655
:1036F000309751F51092D6061092D506B093D406A5
:10370000A093D306BCCFD383C28340815181840F61
:10371000951FC817D90761F44E5F5F4F8881998163
:10372000480F591F518340838A819B8193838283F1
:103730002115310509F0B0CFF093D606E093D506F8
:103740009ECFFD01DC01C0CF13821282D7CFF89447
:02375000FFCFA9
:103752005505550555055505550555055505550597
:103762000000003F0000D70680003F5F7F5E00BC84
:103772000077012409CDCCCC3D2509CDCCCC3D36FA
:10378200CDCCCC3D9A99193E37CDCCCC3D9A9919E6
:103792003E00000000F605560583054306B4059277
:1037A20005A6050D0A006E616E00696E66006F76F1
:1037B200660043616C6962726174696E672052656A
:1037C200637469666965722048616C6C2053656E2A
:1037D200736F7220284130292E2E2E0043616C69AE
:1037E20062726174696E6720436F6E76657274658A
:1037F200722048616C6C2053656E736F7220284191
:1038020031292E2E2E00496E7469616C697A6174B9
:10381200696F6E20636F6D706C6574650053746FB1
:103822007020456E676167656420616E6420766111
:103832006C6964617465640037205365636F6E64FC
:10384200206C696D697420726561636865642E20FD
:103852004472697665722064656163746976617425
:1038620065642E00E2948CE29480E29480E294807B
:1038720020455552555320504F57455220425553DB
:1038820020283530306D732041766572616765643A
:10389200204672616D652920E29480E29480E29470
:1038A20080E2949000E294822052656374696669B2
:1038B200657220496E20203A2000205620202040A8
:1038C20020202000204100E2948220436F6E766522
:1038D20072746572204F7574203A2000E29482203F
:1038E20054757262696E6520506F776572203A2056
:1038F20000205700E2948220526F746F722053703E
:103902006565642020203A20002052504D00E29448
:1039120082205069746368202F2054656D702020C6
:103922003A200020C2B02020202F2020200020C2D8
:10393200B04300E29482204D505054204472697684
:1039420065202020203A20002025202020285469AC
:103952006D657220476174653A2000202F2000298E
:1039620000E29482204272616B6520537461747527
:103972007320203A2000434C454152205B4F4B5D5F
:10398200005B5B20454E4741474544205D5D20205A
:10399200706F733D002072616420206572723D0079
:1039A2002072616400E29494E29480E29480E29452
:1039B20080E29480E29480E29480E29480E29480B7
:1039C200E29480E29480E29480E29480E29480E245
:1039D2009480E29480E29480E29480E29480E29483
:1039E20080E29480E29480E29480E29480E2948087
:1039F200E29480E29480E29480E29480E29480E215
:103A02009480E29480E29480E29480E29480E29452
:103A120080E29480E29480E29480E29480E2948056
:103A2200E29480E29480E29480E29480E29480E2E4
:063A32009480E29498006C
:00000001FF
