:100000000C946D010C942F0F0C94040F0C94D90ECA
:100010000C94AE0E0C94830E0C94580E0C942D0E72
:100020000C94020E0C949E010C949E010C949E0163
:100030000C949E010C949E010C949E010C949E01C4
:100040000C949E010C949E010C949E010C949E01B4
:100050000C949E010C949E010C949E010C94B80D7E
:100060000C949E010C94E40F0C94BA0F0C949E0116
:100070000C949E010C949E010C949E010C949E0184
:100080000C949E010C949E010C949E010C949E0174
:100090000C949E010C949E010C949E010C949E0164
:1000A0000C949E010C949E010C949E010C949E0154
:1000B0000C949E010C949E010C949E010C949E0144
:1000C0000C949E010C949E010C949E010C94840F40
:1000D0000C945A0F0C949E010C949E010C949E015A
:1000E0000C949E010C94BE050C949C040C94820507
:1000F0000C941A100C946F060C9422060C94D304E2
:100100000C945E030C9499030C94D2050C94620336
:100110000C94E7040C9477030C948C040C94C9049D
:100120000C94FB040C94F1040C9441070C9493037D
:100130000C9482040C9461040C9466030C946A037E
:100140000C9473030C9494040C9478040C94BA04E7
:100150000C94E0050C949D030C94A6040C946D0380
:100160000C9481050C9498030C948B030C94AF05AC
:100170000C946E040C94B0040C9466070C948503E4
:100180000C947D030C94DD040C9481030C945803AF
:100190000C9469040C948F030000210024002700B4
:1001A0002A002D0030003300010100000401070186
:1001B0000A0100002200250028002B002E0031003B
:1001C000340002010000050108010B0100002000BD
:1001D0002300260029002C002F003200000100001F
:1001E00003010601090105050505070508080808BA
:1001F000020202020A0A08080404040401010101BF
:1002000001010101030303030303030304070707B9
:100210000C0C0C0C0C0C0C0C02020202060606065E
:10022000060606060B0B0B0B0B0B0B0B010210202B
:10023000200808102040102040800201020108041C
:1002400002010102040810204080804020100804B0
:100250000201800402018040201008040201080409
:10026000020101020408102040800102040810204D
:10027000408000000A0B02090C0D0E080703040160
:10028000000000000000000000000000000000006E
:10029000000000000000000000000000000012113B
:1002A000100000000000000000000000000000003E
:1002B0000000000000000000005EBCE2613FDD8342
:1002C000C29C7E20A3FD1F41009D23BE46DB65F836
:1002D0008C11AF32CA57E9741A1011241FBECFEF28
:1002E000D1E2DEBFCDBF00E00CBF14E0A0E0B2E081
:1002F000EAEDF8E300E00BBF02C007900D92AA3DC3
:10030000B107D9F726E0AAEDB4E001C01D92A53DE2
:10031000B207E1F711E0CDE6D1E000E006C0219799
:100320000109802FFE010E94E718CC36D10780E03A
:100330000807A9F70E946D100C946B1C0C94000028
:10034000FC01A089B18982E08C93A485B5851C92BB
:10035000A685B7858FEC8C93108EA489B58986E02D
:100360008C93A289B3898C9180618C93A289B38983
:100370008C9188608C93A289B3898C9180688C93CE
:100380000288F389E02D80818F7D80830895DC01D0
:1003900080E0615090F09D919827E92FEF70F0E098
:1003A000E854FD4F2491E92FE295EF70F0E0E85317
:1003B000FD4FE491822F8E27ECCF0895FC01138628
:1003C000158614861286118610861782168215826B
:1003D000148213820895DC012C911196ED91FC9109
:1003E000F8948181822B81839281322F30959323DF
:1003F000928387E090E00197F1F7818183238183E5
:1004000083E290E00197F1F790817894EFECF0E0CF
:100410003197F1F7922381E009F480E00895FC011F
:1004200090810180F281E02D292F209560FF14C07A
:10043000F8948281822382838181892B8183A3E244
:10044000B0E01197F1F78281982B9283789487ED31
:1004500090E00197F1F70895F894828182238283D6
:100460008181892B8183AFEFB0E01197F1F7828111
:10047000982B928378948FE090E0EBCFDF92EF920D
:10048000FF920F931F93CF93DF93EC01D62EE42EB0
:1004900008E010E0FF24F39461E08D2D8F2109F432
:1004A00060E0CE010E940F02FF0C01501109A1F77C
:1004B000E11010C0F894E981FA81918188818095DA
:1004C00089238183E981FA819281888180958923BA
:1004D00082837894DF91CF911F910F91FF90EF90DD
:1004E000DF900895EF92FF920F931F93CF93DF93C6
:1004F0008C017B0140E065E50E943E02E70188E057
:10050000E80EF11C699140E0C8010E943E02CE1540
:10051000DF05C1F7DF91CF911F910F91FF90EF9011
:100520000895FC0190810180F281E02DF894818191
:10053000292F20958223818378943DE743E050E082
:10054000315029F1DA011197F1F780818923C1F344
:10055000F8948281822382838181892B818378949C
:10056000ABE7B7E01197F1F7F8948181822381839B
:10057000A3E1B1E01197F1F78081982381E009F0C0
:1005800080E07894E3E6F6E03197F1F7089580E0B3
:1005900008954F925F926F927F928F929F92AF9247
:1005A000BF92CF92DF92EF92FF920F931F93CF9360
:1005B000DF938C017B01EA01FC01818592850E9419
:1005C00091028823D9F1B701F801818592850E94B3
:1005D000720240E06EEBF801818592850E943E0236
:1005E0006E015E01F9E0AF0EB11C7E01F80181845D
:1005F000928488E0682E712C512C44244394C401C9
:100600000E94EB0181115428440CF1E06F1A71082B
:10061000B1F7F70151927F01AE16BF0639F7F80125
:10062000818592850E949102813041F4F601819189
:100630006F01811105C0EE15FF05C1F790E008C0FC
:1006400068E0CE010E94C70191E028852813F6CF0B
:10065000892FDF91CF911F910F91FF90EF90DF9045
:10066000CF90BF90AF909F908F907F906F905F9052
:100670004F9008958150823108F05AC0E82FF0E081
:100680008827EA5BFC4F8F4F0C94E71866036A03D8
:1006900058035E03620398036D03730377037D03BE
:1006A000810385038B038F039803930399039D03B1
:1006B000809180008F7780938000089580918000E2
:1006C0008F7DF9CF80918000877FF5CF84B58F77BC
:1006D00084BD089584B58F7DFBCF8091B0008F7766
:1006E0008093B00008958091B0008F7DF9CF809104
:1006F00090008F77809390000895809190008F7D77
:10070000F9CF80919000877FF5CF8091A0008F77FF
:100710008093A00008958091A0008F7DF9CF8091F3
:10072000A000877FF5CF809120018F7780932001F3
:100730000895809120018F7DF9CF80912001877FDE
:10074000F5CFCF93DF93282F30E0F901EE58FD4F1E
:100750008491F901E45DFD4FD491F901EA51FE4F16
:10076000C491CC23A1F081110E943A03EC2FF0E058
:10077000EE0FFF1FE453FE4FA591B491EC91ED23D2
:1007800081E090E009F480E0DF91CF91089580E06E
:1007900090E0FACF1F93CF93DF93282F30E0F90139
:1007A000EE58FD4F8491F901E45DFD4FD491F901BC
:1007B000EA51FE4FC491CC23A9F0162F81110E945B
:1007C0003A03EC2FF0E0EE0FFF1FEE54FE4FA59121
:1007D000B4918FB7F894EC91111108C0D095DE2335
:1007E000DC938FBFDF91CF911F910895DE2BF8CF5F
:1007F000CF93DF9390E0FC01E45DFD4F24918A519B
:100800009E4FFC0184918823D1F090E0880F991FBE
:10081000FC01E856FE4FA591B491FC01EE54FE4F49
:10082000C591D49161110EC09FB7F8948C91E22FBD
:10083000E0958E238C932881E223E8839FBFDF918C
:10084000CF9108958FB7F894EC91E22BEC938FBF82
:10085000F6CF1F93CF93DF93182FEB0161E00E9437
:10086000F803209739F460E0812FDF91CF911F9139
:100870000C94CA03CF3FD10511F461E0F5CFE12F0D
:10088000F0E0EE58FD4FE491E150E23108F0B3C0E2
:10089000F0E08827E15BFB4F8F4F0C94E718610471
:1008A00069046E0478048204FB048C0494049C04A0
:1008B000A604B004BA04C904D304FB04DD04E704AD
:1008C000F10484B5806884BDC7BDDF91CF911F91CD
:1008D000089584B5806284BDC8BDF7CF8091800043
:1008E000806880938000D0938900C0938800EDCF0A
:1008F00080918000806280938000D0938B00C093B1
:100900008A00E3CF80918000886080938000D0933C
:100910008D00C0938C00D9CF8091B0008068809307
:10092000B000C093B300D1CF8091B00080628093BB
:10093000B000C093B400C9CF8091900080688093CC
:100940009000D0939900C0939800BFCF8091900001
:10095000806280939000D0939B00C0939A00B5CFA3
:1009600080919000886080939000D0939D00C09308
:100970009C00ABCF8091A00080688093A000809104
:10098000A0008F7B8093A000D093A900C093A80003
:100990009CCF8091A00080628093A000D093AB0098
:1009A000C093AA0092CF8091A00088608093A0009D
:1009B000D093AD00C093AC0088CF809120018068B7
:1009C00080932001D0932901C09328017ECF80918C
:1009D0002001806280932001D0932B01C0932A01D3
:1009E00074CF80912001886080932001D0932D01E5
:1009F000C0932C016ACFC038D1050CF03ECF33CF65
:100A0000863308F0865320917B00982F9870277FBB
:100A1000922B90937B008770806480937C00809100
:100A20007A00806480937A0080917A0086FDFCCF02
:100A3000809178009091790008953FB7F894809163
:100A4000930590919405A0919505B091960526B5D2
:100A5000A89B05C02F3F19F00196A11DB11D3FBFF6
:100A6000BA2FA92F982F8827BC01CD01620F711DC5
:100A7000811D911D42E0660F771F881F991F4A95BF
:100A8000D1F708958F929F92AF92BF92CF92DF924B
:100A9000EF92FF926B017C010E941D054B015C01EE
:100AA000C114D104E104F104B9F00E941D056819D4
:100AB00079098A099B09683E73408105910580F395
:100AC00021E0C21AD108E108F10888EE880E83E01F
:100AD000981EA11CB11CE4CFFF90EF90DF90CF9047
:100AE000BF90AF909F908F9008952FB7F89460912A
:100AF0008F057091900580919105909192052FBF7F
:100B000008950895AF92BF92CF92DF92EF92FF9235
:100B10000F931F93CF93DF936C017B018B01040F25
:100B2000151FEB015E01AE18BF08C017D10759F0C1
:100B30006991D601ED91FC910190F081E02DC60103
:100B40001995892B79F7C501DF91CF911F910F91ED
:100B5000FF90EF90DF90CF90BF90AF900895FC0191
:100B6000538D448D252F30E0842F90E0821B930B12
:100B7000541710F0CF96089501970895FC01918DB8
:100B8000828D981761F0A28DAE0FBF2FB11D5D96BB
:100B90008C91928D9F5F9F73928F90E008958FEF5D
:100BA0009FEF0895FC01918D828D981731F0828D11
:100BB000E80FF11D858D90E008958FEF9FEF089568
:100BC000FC01918D228D892F90E0805C9F4F821BCC
:100BD00091098F739927089587E995E00E94E005B0
:100BE00021E0892B09F420E0822F089584E396E028
:100BF0000E94E00521E0892B09F420E0822F08956E
:100C0000FC01A48DA80FB92FB11DA35ABF4F2C9181
:100C1000848D90E001968F739927848FA689B78978
:100C20002C93A089B1898C91837080648C93938D6F
:100C3000848D981306C00288F389E02D80818F7D12
:100C400080830895EF92FF920F931F93CF93DF93CA
:100C5000EC0181E0888F9B8D8C8D98131AC0E889F8
:100C6000F989808185FF15C09FB7F894EE89FF89C7
:100C70006083E889F98980818370806480839FBF65
:100C800081E090E0DF91CF911F910F91FF90EF9065
:100C90000895F62E0B8D10E00F5F1F4F0F73112775
:100CA000E02E8C8D8E110CC00FB607FCFACFE889B0
:100CB000F989808185FFF5CFCE010E940006F1CF32
:100CC000EB8DEC0FFD2FF11DE35AFF4FF0829FB724
:100CD000F8940B8FEA89FB8980818062CFCFCF9314
:100CE000DF93EC01888D8823B9F0AA89BB89E88954
:100CF000F9898C9185FD03C0808186FD0DC00FB6FA
:100D000007FCF7CF8C9185FFF2CF808185FFEDCF77
:100D1000CE010E940006E9CFDF91CF91089580E0D7
:100D200090E0892B29F00E94F60581110E940000B5
:100D300080E090E0892B49F080E090E0892B29F059
:100D40000E94000081110E94000080E090E0892B49
:100D500029F00E94EC0581110E94000080E090E0E3
:100D6000892B49F080E090E0892B29F00E94000057
:100D700081110C9400000895CF92DF92EF92FF92C0
:100D80000F931F93CF93DF9329E0289FF001299FB2
:100D9000F00D1124E251FB4F2085211146C08C013A
:100DA000FC01EE0FFF1FE651FB4FC081D181898509
:100DB0009A850E94910240E06CEC89859A850E9498
:100DC0003E02488164E489859A850E943E020E9421
:100DD00075056B017C018C818823B9F08D81882396
:100DE00069F1888181112AC089859A850E94EB0169
:100DF000813059F00E9475056C197D098E099F0993
:100E00006E3E72408105910578F30E94750529E0D8
:100E1000209FF001219FF00D1124E251FB4F6483CC
:100E200075838683978381E08087DF91CF911F91BF
:100E30000F91FF90EF90DF90CF900895EB81E950F4
:100E40008EEE92E0E33038F4F0E0EE0FFF1FEF5D3E
:100E5000FD4F808191816C01F12CE12C89818823E7
:100E600021F060E08A810E94CA03C701B6010E9496
:100E700042058981882349F261E08A810E94CA0380
:100E8000C4CF83E00E94A1030197A1F480911405CF
:100E900090911505A0911605B09117050196A11D19
:100EA000B11D8093140590931505A0931605B0937A
:100EB000170508958091140590911505A0911605C8
:100EC000B09117050197A109B109EBCF83E10E9409
:100ED000A1030197A1F48091040590910505A091CB
:100EE0000605B09107050197A109B1098093040592
:100EF00090930505A0930605B0930705089580918A
:100F0000040590910505A0910605B091070501968D
:100F1000A11DB11DEBCF4F925F926F927F928F9286
:100F20009F92AF92BF92CF92DF92EF92FF920F9378
:100F30001F93CF93DF9300D000D0CDB7DEB729E069
:100F4000289FA001299F500D11244D5C5D4F5E83A9
:100F50004D83DA0111968D909D90AD90BC901497C1
:100F60001596CD90DD90ED90FC90189726E0289F87
:100F70008001299F100D112406521B4FF80160813A
:100F80007181072E000C880B990B0E941F1A2B01F0
:100F90003C01D80112962D913D914D915C91159790
:100FA00029833A834B835C83ED81FE8180810E949B
:100FB0000005692F6695669570E090E080E00E94DC
:100FC0001D1A20E030E040EA50E40E94D41AA30148
:100FD00092010E940319A50194010E947519A701AD
:100FE00096010E94D41A4B015C01A701960160E0B2
:100FF00070E080E89FE30E94031929813A814B81C8
:101000005C810E94D41A9B01AC01C501B4010E940D
:101010000419D80112966D937D938D939C93159727
:1010200026960FB6F894DEBF0FBECDBFDF91CF91ED
:101030001F910F91FF90EF90DF90CF90BF90AF90F6
:101040009F908F907F906F905F904F900895BF9288
:10105000CF92DF92EF92FF920F931F93CF93DF9384
:101060008C0189E0809FF001819FF00D1124ED5CDF
:10107000FD4FB080C4EFD1E0C12CD12C76018B2D77
:101080000E940005BC01990F880B990B0E941F1A42
:101090009B01AC01C701B6010E9404196B017C01E0
:1010A000219769F786E0809FE001819FD00D112490
:1010B000C652DB4F20E030E04AEF53E4C701B601EF
:1010C0000E9475190E94E7197983688381E0DF9196
:1010D000CF911F910F91FF90EF90DF90CF90BF9035
:1010E0000895FC0101900020E9F73197AF01481BFA
:1010F000590BBC0184E396E00C9482058F929F9279
:10110000AF92BF920F931F93CF93DF93CDB7DEB70C
:10111000A1970FB6F894DEBF0FBECDBF19A2423023
:1011200008F44AE08E010F5D1F4F842E912CB12CE4
:10113000A12CA50194010E94A218E62FB901CA01B1
:10114000EA30F4F4E05DD801EE938D01232B242BDB
:10115000252B79F790E080E0109719F0CD010E94DF
:101160007108A1960FB6F894DEBF0FBECDBFDF9118
:10117000CF911F910F91BF90AF909F908F90089546
:10118000E95CE1CFCF93DF930E947108EC0187E522
:1011900092E00E9471088C0F9D1FDF91CF910895FE
:1011A0000C947108BF92CF92DF92EF92FF920F934F
:1011B0001F93CF93DF93EC01B62EC72E8D8581113F
:1011C00005C0CE010E94910281110EC01B861D86B2
:1011D0001C8680E0DF91CF911F910F91FF90EF90DF
:1011E000DF90CF90BF90089540E060EFCE010E9465
:1011F0003E0201E0E12CD12C11E0CE010E94EB0176
:10120000F82ECE010E94EB0191E0F91218C0813056
:1012100099F51134D8F2DB86D11002C081E08D87B8
:101220008B81882399F22396EB2DFC2DCF01089614
:1012300029912193E817F907D9F781E0CBCFEE2D5B
:10124000F0E0F8120FC08B851817A0F4DE01AE0F86
:10125000BF1F13968C91802379F4F12C193008F478
:101260001C87D12EEC0FFD1F8381902F9095892331
:1012700083830AC08113F1CFFE01EE0DF11D83813E
:10128000802B8383FF24F3946F2DCE010E940F02E5
:101290001F5F000F11F4E39401E087E08E1508F062
:1012A000ACCFB7CF2F923F924F925F926F927F92C7
:1012B0008F929F92AF92BF92CF92DF92EF92FF9266
:1012C0000F931F93CF93DF93CDB7DEB761970FB620
:1012D000F894DEBF0FBECDBF8C0189E0809FF00186
:1012E000819FF00D1124E251FB4F8085882309F482
:1012F000D7C086E0809FF001819FF00D1124E95D49
:10130000FD4FE181E950BEEEEB2EB2E0FB2EE33063
:1013100038F4F0E0EE0FFF1FEF5DFD4FE080F1804D
:101320000E94750529E0209FF001219FF00D1124F6
:10133000E251FB4F84809580A680B780AB01BC0151
:10134000481959096A097B09C701B0E0A0E04817AC
:1013500059076A077B0708F4A3C0F801EE0FFF1FC7
:10136000E651FB4FE080F180F701818592850E9474
:10137000DE01BE01665F7F4FF701818592850E9485
:10138000D208882309F483C067E0CE010A960E9440
:10139000C701998989137BC0AE014F5F5F4FBE01C2
:1013A000665F7F4FC7010E94C902882309F46FC09E
:1013B0002A8160E070E0CB0127FF04C060E070E0AC
:1013C00088EF9FEF3A8589803B3309F08EC04D81CD
:1013D00047FF8BC080FC5BC0912CB12CA12C53E04B
:1013E000880C991CAA1CBB1C5A95D1F77501640185
:1013F000F0EECF22F7E0DF22EE24FF24822E912CA4
:10140000B12CA12CEBE0880C991CAA1CBB1CEA9502
:10141000D1F78C289D28AE28BF28682979298A29E8
:101420009B296138F4EE7F07FFEF8F079F077CF160
:101430000E941F1A20E030E040E05CE30E94D41AD2
:101440006B017C0120E030E04EEF52EC0E947019FD
:101450008823E9F029E0209FC001219F900D1124ED
:101460009C0122513B4F1901F9014080518062805B
:10147000738020E030E0A901C301B2010E9470191D
:10148000811179C0F101C082D182E282F38289E0C8
:10149000809FF001819FF00D1124E251FB4F1086D7
:1014A00089E0809FF001819FF00D1124E251FB4FF4
:1014B000608171818281938161960FB6F894DEBF5D
:1014C0000FBECDBFDF91CF911F910F91FF90EF9095
:1014D000DF90CF90BF90AF909F908F907F906F9054
:1014E0005F904F903F902F900895C22ED12CDC2C0E
:1014F000CC24DD0CDD0CDD0C28E0829E40011124A3
:10150000C828D9280D2C000CEE08FF086C297D296D
:101510008E299F29303109F084CF2885222309F4B0
:1015200080CF6B017C0183E0CC0CDD1CEE1CFF1C2A
:101530008A95D1F730E8C32237E0E322FF2480E226
:10154000C81AD108E108F108622F70E08F81FB0111
:10155000E81BF109CF019695982F882797958795D5
:101560000E94D318072E000C880B990B6C0D7D1D63
:101570008E1D9F1D56CF86E0809FF001819FF00D4C
:101580001124E95DFD4F82809380A480B580A50180
:10159000940160E070E080E89FE30E940319A301DA
:1015A00092010E94D41A2B013C01A7019601C501AA
:1015B000B4010E94D41A9B01AC01C301B2010E9484
:1015C0000419F101608371838283938360CF4F920A
:1015D0005F926F927F928F929F92AF92BF92CF92C3
:1015E000DF92EF92FF92CF936B017C01842EAC01CE
:1015F0009B010E94411B882389F08AE592E0CF91EC
:10160000FF90EF90DF90CF90BF90AF909F908F9022
:101610007F906F905F904F900C9471082601370176
:10162000E89477F82FEF3FEF4FE75FE7C301B20190
:101630000E94411B81110DC02FEF3FEF4FE75FE785
:10164000C301B2010E94701918161CF48EE592E0D5
:10165000D6CF2FEF3FEF4FE75FE4C701B6010E94FF
:10166000CF1A18161CF482E692E0C9CF2FEF3FEF95
:101670004FE75FECC701B6010E94701987FDF3CFF9
:1016800020E030E0A901C701B6010E947019B12C19
:10169000A12C87FF0AC06DE284E396E00E94220637
:1016A0005C01F7FAF094F7F8F094C82D60E070E070
:1016B00080E09FE3912C20E030E040E251E40E9482
:1016C000751993949814B8F3A70196010E94041910
:1016D0002B013C010E94EE196B017C010E941D1A36
:1016E0009B01AC01C301B2010E9403192B013C0113
:1016F0004AE0C701B6010E947E087C016EE284E3E5
:1017000096E00E942206E80EF91EEA0CFB1CC1506E
:1017100018F120E030E040E251E4C301B2010E9440
:10172000D41A2B013C010E94EE194B01B12CA12CC3
:101730004AE0C501B4010E947E08E80EF91EC50109
:10174000B4010E941D1A9B01AC01C301B2010E94A9
:1017500003192B013C01DBCFC701CF91FF90EF9024
:10176000DF90CF90BF90AF909F908F907F906F90C1
:101770005F904F9008959F92AF92BF92CF92DF9269
:10178000EF92FF920F931F93CF93DF93CDB7DEB706
:1017900061970FB6F894DEBF0FBECDBF6C017C0120
:1017A000EE0CFF1CC7018A519B4F5C01DC018D913F
:1017B0009C91892B09F046C08EE090E00E94461B68
:1017C0008C0186E08C9DF0018D9DF00D1124E95D6A
:1017D000FD4F908060E0892D0E94F803892D90E0F4
:1017E000FC01E45DFD4FE491D801EC93FC01EA516A
:1017F000FE4FE491F0E0EE0FFF1FE453FE4F8591A2
:101800009491F80192838183C8010E94DE01D50181
:101810000D931C9387E190E00E94461BFC01168A01
:10182000158A11821287018717821086108289E03B
:10183000838381E0848385838683D701A651BB4F50
:10184000ED93FC93F701E651FB4F00811181F80104
:10185000818592850E94DE01D80117961C92179708
:1018600018961C92BB24B394BE01665F7F4FF801AB
:10187000818592850E94D208882309F477C067E0A9
:10188000CE010A960E94C70199898913EDCFD8012C
:1018900017968C9117978F5F17968C938A8588324D
:1018A00031F008F04AC0803111F08232E9F6F801D7
:1018B00080858F5F80878081811124C0818592859A
:1018C0000E949102BE01665F7F4FD80119968D91EB
:1018D0009C910E94720240E064EBF8018185928540
:1018E0000E943E02D80119968D919C910E94EB01B5
:1018F000A82EF801818592850E949102A11002C054
:10190000D801BC928A85803119F1AE014F5F5F4FDB
:10191000BE01665F7F4FC8010E94C902882359F04B
:101920008D819A859B3311F487FD12C08F3391F01E
:1019300058F48F31B9F080E00EC08B3309F4B7CF83
:10194000823409F091CFB3CF8F3571F08F3799F78B
:101950008CE001C08AE0F8019381981708F084CFE9
:10196000838382CF89E0F7CF8BE0F5CFF701E65193
:10197000FB4F0081118186E08C9DF0018D9DF00D63
:101980001124E95DFD4F81818D3008F08CE08930B4
:1019900008F489E0D80113968C93139719968D91CA
:1019A0009C910E94DE01A12CF8018781A81608F005
:1019B000B5C0BE01665F7F4F818592850E94D208C7
:1019C000882309F48AC067E0CE010A960E94C70105
:1019D0009989891382C08A85803109F47EC0D80133
:1019E0001396BC90AE014F5F5F4FBE01665F7F4FA5
:1019F000C8010E94C902882309F46FC09D818A85AD
:101A00008B3311F497FD69C0EB2DED3008F467C0FE
:101A1000ECE0EA508FE1E33020F4F0E0E25EFD4FCD
:101A20008081981709F459C08D83F80181859285CA
:101A30000E949102BE01665F7F4FD80119968D9179
:101A40009C910E94720240E06EE4F80181859285CB
:101A50000E943E0240E06B81D80119968D919C91C5
:101A60000E943E0240E06C81F801818592850E94CF
:101A70003E028A85803141F040E06D81D80119969F
:101A80008D919C910E943E02F8018185928526816C
:101A9000222309F10E9491028823F9F0BE01665FBA
:101AA0007F4FD80119968D919C910E947202F80186
:101AB000408168E4818592850E943E02D8018C9124
:101AC000811112C064E170E080E090E00E94420564
:101AD000F801818592850E949102A39465CFE93037
:101AE00008F097CFE9E095CFF8018181882321F0B4
:101AF00060E082810E94CA0364E170E080E090E0CF
:101B00000E944205D80111968C911197882301F308
:101B100061E012968C910E94CA03DACFF701E65178
:101B2000FB4F0190F081E02D148289E08C9DF00143
:101B30008D9DF00D1124E251FB4F10861482158209
:101B400016821782108211821282138261960FB65A
:101B5000F894DEBF0FBECDBFDF91CF911F910F91E3
:101B6000FF90EF90DF90CF90BF90AF909F9008953F
:101B70001F920F920FB60F9211242F933F938F93C2
:101B80009F93AF93BF9380918F0590919005A09103
:101B90009105B091920530918E0523E0230F2D37EA
:101BA00058F50196A11DB11D20938E0580938F05D8
:101BB00090939005A0939105B09392058091930521
:101BC00090919405A0919505B09196050196A11D5F
:101BD000B11D8093930590939405A0939505B093C0
:101BE0009605BF91AF919F918F913F912F910F904B
:101BF0000FBE0F901F90189526E8230F0296A11D87
:101C0000B11DD2CF1F920F920FB60F9211240BB6B7
:101C10000F922F933F934F935F936F937F938F9385
:101C20009F93AF93BF93EF93FF93E0910E02F091D8
:101C30000F021995FF91EF91BF91AF919F918F91F5
:101C40007F916F915F914F913F912F910F900BBEBC
:101C50000F900FBE0F901F9018951F920F920FB606
:101C60000F9211240BB60F922F933F934F935F93D4
:101C70006F937F938F939F93AF93BF93EF93FF9354
:101C8000E0910C02F0910D021995FF91EF91BF9137
:101C9000AF919F918F917F916F915F914F913F9104
:101CA0002F910F900BBE0F900FBE0F901F901895A5
:101CB0001F920F920FB60F9211240BB60F922F9313
:101CC0003F934F935F936F937F938F939F93AF93C4
:101CD000BF93EF93FF93E0910202F09103021995F5
:101CE000FF91EF91BF91AF919F918F917F916F91F4
:101CF0005F914F913F912F910F900BBE0F900FBEB0
:101D00000F901F9018951F920F920FB60F921124EB
:101D10000BB60F922F933F934F935F936F937F93E5
:101D20008F939F93AF93BF93EF93FF93E091000244
:101D3000F09101021995FF91EF91BF91AF919F91A1
:101D40008F917F916F915F914F913F912F910F9064
:101D50000BBE0F900FBE0F901F9018951F920F9201
:101D60000FB60F9211240BB60F922F933F934F9300
:101D70005F936F937F938F939F93AF93BF93EF93F3
:101D8000FF93E0910A02F0910B021995FF91EF91F8
:101D9000BF91AF919F918F917F916F915F914F9183
:101DA0003F912F910F900BBE0F900FBE0F901F9081
:101DB00018951F920F920FB60F9211240BB60F9227
:101DC0002F933F934F935F936F937F938F939F9343
:101DD000AF93BF93EF93FF93E0910802F091090254
:101DE0001995FF91EF91BF91AF919F918F917F9145
:101DF0006F915F914F913F912F910F900BBE0F907C
:101E00000FBE0F901F9018951F920F920FB60F9252
:101E100011240BB60F922F933F934F935F936F93C1
:101E20007F938F939F93AF93BF93EF93FF93E09133
:101E30000602F09107021995FF91EF91BF91AF91C2
:101E40009F918F917F916F915F914F913F912F91D2
:101E50000F900BBE0F900FBE0F901F9018951F9202
:101E60000F920FB60F9211240BB60F922F933F9340
:101E70004F935F936F937F938F939F93AF93BF9392
:101E8000EF93FF93E0910402F09105021995FF9101
:101E9000EF91BF91AF919F918F917F916F915F91E2
:101EA0004F913F912F910F900BBE0F900FBE0F904F
:101EB0001F9018951F920F920FB60F9211240BB618
:101EC0000F922F933F934F935F936F937F938F93D3
:101ED0009F93AF93BF93EF93FF9387E995E00E94A1
:101EE0000006FF91EF91BF91AF919F918F917F91EC
:101EF0006F915F914F913F912F910F900BBE0F907B
:101F00000FBE0F901F9018951F920F920FB60F9251
:101F100011240BB60F922F938F939F93EF93FF9300
:101F2000E091A705F091A8058081E091AD05F091C1
:101F3000AE0582FD1DC090818091B0058F5F8F73CB
:101F40002091B105821741F0E091B005F0E0E9562B
:101F5000FA4F958F8093B005FF91EF919F918F91EC
:101F60002F910F900BBE0F900FBE0F901F901895E2
:101F70008081F2CF1F920F920FB60F9211240BB6F1
:101F80000F922F933F934F935F936F937F938F9312
:101F90009F93AF93BF93EF93FF9384E396E00E94E8
:101FA0000006FF91EF91BF91AF919F918F917F912B
:101FB0006F915F914F913F912F910F900BBE0F90BA
:101FC0000FBE0F901F9018951F920F920FB60F9291
:101FD00011240BB60F922F938F939F93EF93FF9340
:101FE000E0914406F09145068081E0914A06F09127
:101FF0004B0682FD1DC0908180914D068F5F8F73CF
:1020000020914E06821741F0E0914D06F0E0EC5C25
:10201000F94F958F80934D06FF91EF919F918F918E
:102020002F910F900BBE0F900FBE0F901F90189521
:102030008081F2CFE7E9F5E01382128248EE53E0A7
:1020400060E070E0448355836683778389E492E09F
:102050009183808325ED30E03587248724ED30E0BF
:102060003787268720ED30E0318B208B21ED30E063
:10207000338B228B22ED30E0358B248B26ED30E044
:10208000378B268B118E128E138E148EE4E3F6E0BE
:10209000138212824483558366837783918380837E
:1020A00085EC90E09587848784EC90E0978786871D
:1020B00080EC90E0918B808B81EC90E0938B828B15
:1020C00082EC90E0958B848B86EC90E0978B868BEE
:1020D000118E128E138E148E0895CF93DF93CDB789
:1020E000DEB72C970FB6F894DEBF0FBECDBF789445
:1020F00084B5826084BD84B5816084BD85B582600D
:1021000085BD85B5816085BD80916E0081608093BD
:102110006E00109281008091810082608093810026
:102120008091810081608093810080918000816036
:10213000809380008091B10084608093B100809191
:10214000B00081608093B0008091910082608093A4
:102150009100809191008160809391008091900026
:102160008160809390008091A10082608093A100A3
:102170008091A10081608093A1008091A000816086
:102180008093A00080912101826080932101809141
:1021900021018160809321018091200181608093E1
:1021A000200180917A00846080937A0080917A0087
:1021B000826080937A0080917A00816080937A00B7
:1021C00080917A00806880937A001092C10084E345
:1021D00096E00E94A00187E995E00E94A00160E0DE
:1021E00086E30E94F80360E087E30E94F80360E062
:1021F00088E30E94F80360E089E30E94F80360E04E
:102200008BE30E94F80360E082E00E94F80360E044
:1022100083E00E94F80310921405109215051092A5
:102220001605109217050E947505609318057093A6
:10223000190580931A0590931B0581E497E090930C
:1022400001028093000280916A00836080936A009B
:10225000EC9A90E080E00E94BB0B81E090E00E944D
:10226000BB0B61E086E00E94F80360E082E10E941F
:10227000F80360E083E10E94F80386E697E090931C
:102280000B0280930A0280916900806C8093690040
:10229000EB9A61E086E10E94F80361E088E00E9429
:1022A000F80360E086E10E94CA0370E060E088E025
:1022B0000E9429040E947505609308057093090522
:1022C00080930A0590930B0586E692E00E94C2086F
:1022D00090E080E00E94270880E992E00E94C20816
:1022E00081E090E00E9427088AEA80936A058BEBE0
:1022F00080936B0510926C0510926D0510926E051F
:1023000010926F051092700510927105109272056F
:10231000109273051092740510927505109276054F
:1023200010927705109278051092790510927A052F
:1023300010927B0510927C0510927D0510927E050F
:1023400010927F05109280051092810510928205EF
:1023500010928305109284051092850510928605CF
:1023600010928705109288051092890510928A05AF
:1023700010928B0510928C058AEB92E00E94C208A5
:1023800087E995E00E94E00518161906ACF4209143
:102390008D05298387E995E00E94BE05833561F4A8
:1023A000398131110EC081E080936C0580938D05D9
:1023B00081ED92E00E94C20880918D05882309F486
:1023C000CAC00E947505C0900805D0900905E0902C
:1023D0000A05F0900B059B01AC012C193D094E0933
:1023E0005F0969017A013AE0C316D104E104F104FE
:1023F00008F4B1C0609308057093090580930A053D
:1024000090930B05F89460910405709105058091F7
:1024100006059091070578940E941F1A20E030EE7F
:1024200049E055E40E9475199B01AC010E94041912
:102430002BED3FE049E450E40E94D41A9B01AC012B
:1024400020932405309325054093260550932705B6
:1024500060E070E080EA90E40E9403194B015C01A7
:10246000209100053091010540910205509103052E
:102470000E9403192AE037ED43E25CE30E947519DC
:102480002EE93FEE47EA5CE30E94D41A6B017C011F
:1024900024E63BE343E850E4C501B4010E94D41AAA
:1024A0009B01AC01C701B6010E9404196B017C01BC
:1024B00020E030E040E451EC0E94701987FD66C5D1
:1024C00020E030E040E451E4C701B6010E94CF1A99
:1024D00018165CF020E030E0A901C701B6010E94A7
:1024E000CF1A87FF08C061E007C0C12CD12C30E4AF
:1024F000E32E31E4F32E60E086E10E94CA0320E07F
:1025000030E0A901C701B6010E94CF1A18160CF0DD
:1025100044C520E030E04AE754E4C701B6010E9418
:10252000D41A0E94E719AFEFB0E09B01AC010E9402
:10253000971820EE3EE240E050E00E947818B90182
:1025400088E00E9429048092000590920105A092E3
:102550000205B09203050E947505C0906605D090F3
:102560006705E0906805F09069056C197D098E0992
:102570009F09643171058105910508F424C20E9408
:102580007505609366057093670580936805909361
:10259000690590E080E00E948B0790586093620587
:1025A00070936305809364059093650581E090E0E6
:1025B0000E948B0760935E0570935F0580936005B2
:1025C0009093610588E30E940005BC0190E080E0E3
:1025D0000E941D1A20E030E040E85AE30E94D41A1D
:1025E00020E030E040EA50E40E94D41A2AEB38EEB2
:1025F00042EB51E40E94D41A60935A0570935B0534
:1026000080935C0590935D0589E30E9400056C0151
:102610008BE30E9400057C01B60190E080E00E94FF
:102620001D1A20E030E040E85AE30E94D41A20E06E
:1026300030E040EA50E40E94D41A2DEC3CEC4CEC23
:102640005DE30E94D41A4B015C0126E636E646E6BD
:102650005FE36091100570911105809112059091D2
:1026600013050E94D41A9B01AC01C501B4010E945C
:1026700004194B015C018092100590921105A09203
:102680001205B0921305B70190E080E00E941D1A78
:1026900020E030E040E85AE30E94D41A20E030E025
:1026A00040EA50E40E94D41A2DEC3CEC4CEC5DE383
:1026B0000E94D41A6B017C0126E636E646E65FE30B
:1026C00060910C0570910D0580910E0590910F059C
:1026D0000E94D41A9B01AC01C701B6010E940419E3
:1026E0009B01AC0120930C0530930D0540930E0522
:1026F00050930F05C501B4010E94031920E030E09A
:102700004AEF52E40E94D41A905860935605709391
:10271000570580935805909359050E9475054B0104
:102720005C01409118055091190560911A0570914E
:102730001B057C016401C41AD50AE60AF70A09F4EC
:1027400034C4F894609114057091150580911605B4
:102750009091170510921405109215051092160508
:102760001092170578948092180590921905A092FE
:102770001A05B0921B050E941F1A20E030E046E1C6
:1027800054E40E9475194B015C01C701B6010E9417
:102790001D1A9B01AC0160E070E68AE697E40E9496
:1027A00075199B01AC01C501B4010E94D41A6B01DB
:1027B0007C01C0925205D0925305E0925405F092EC
:1027C00055054090560550905705609058057090FB
:1027D000590580905E0590905F05A0906005B090CF
:1027E0006105A5019401C301B2010E94D41A698355
:1027F0007A838B839C8360934E0570934F058093FF
:1028000050059093510590E080E00E94BC0681E065
:1028100090E00E94BC0690E080E00E9452096D8327
:102820007E838F83988781E090E00E9452096987B8
:102830007A878B879C87A701960160914A057091E2
:102840004B0580914C0590914D050E9404196093B1
:102850004A0570934B0580934C0590934D05298153
:102860003A814B815C81609146057091470580916A
:102870004805909149050E9404196093460570939C
:1028800047058093480590934905A50194016091FF
:1028900042057091430580914405909145050E9441
:1028A0000419609342057093430580934405909307
:1028B0004505A301920160913E0570913F0580910D
:1028C0004005909141050E94041960933E05709364
:1028D0003F0580934005909341052091620530911A
:1028E0006305409164055091650560913A057091CA
:1028F0003B0580913C0590913D050E940419609331
:102900003A0570933B0580933C0590933D052091DB
:102910005A0530915B0540915C0550915D056091D1
:1029200036057091370580913805909139050E94E0
:10293000041960933605709337058093380590939A
:10294000390520E030E0A90160913205709133052E
:1029500080913405909135050E94041960933205E9
:1029600070933305809334059093350529853A8516
:102970004B855C856D817E818F8198850E940419CD
:1029800020E030E040E05FE30E94D41A9B01AC01FC
:1029900060912E0570912F05809130059091310541
:1029A0000E94041960932E0570932F0580933005C3
:1029B0009093310580912C0590912D05019690936F
:1029C0002D0580932C050E947505C0902805D09098
:1029D0002905E0902A05F0902B056C197D098E09D8
:1029E0009F09643F71408105910508F4CCC20E94A3
:1029F0007505609328057093290580932A059093A7
:102A00002B0560912C0570912D056115710509F458
:102A1000BAC290E080E00E941D1A6B017C01AC01FB
:102A20009B0160914A0570914B0580914C059091F6
:102A30004D050E94751960936D0570936E05809326
:102A40006F0590937005A7019601609146057091FE
:102A5000470580914805909149050E94751960933A
:102A60007105709372058093730590937405A701A7
:102A700096016091420570914305809144059091C3
:102A800045050E94751960937505709376058093CE
:102A9000770590937805A701960160913E057091A6
:102AA0003F0580914005909141050E947519609302
:102AB000790570937A0580937B0590937C05A70137
:102AC000960160913A0570913B0580913C0590918B
:102AD0003D050E94751969837A838B839C8360937B
:102AE0007D0570937E0580937F0590938005A701F7
:102AF0009601609136057091370580913805909167
:102B000039050E9475196D837E838F839887609342
:102B10008105709382058093830590938405A701B6
:102B20009601609132057091330580913405909142
:102B300035050E947519609385057093860580930D
:102B4000870590938805A701960160912E057091E5
:102B50002F0580913005909131050E947519609381
:102B6000890570938A0580938B0590938C0520913D
:102B700020053091210540912205509123056D815A
:102B80007E818F8198850E9403194B015C01209101
:102B90001C0530911D0540911E0550911F0569814E
:102BA0007A818B819C810E9403192B013C0120E0DA
:102BB00030E0A901C501B4010E94CF1A18160CF02B
:102BC000F8C127E137EB41ED58E3C501B4010E949C
:102BD0007019881F8827881F8987C0901002D0909D
:102BE0001102E0901202F09013028985882309F403
:102BF000EFC120E030E0A901C301B2010E94CF1A69
:102C00002AE037ED43EA5BE318160CF41FC220E01C
:102C100030E0A901C301B2010E9470192AE037ED2A
:102C200043EA5BE387FD25C223E333E343E75FE346
:102C3000C701B6010E94CF1A18160CF41FC22AE968
:102C400039E949E15EE3C701B6010E94701987FDC9
:102C50001DC22D813E814F815885209320053093E0
:102C60002105409322055093230589819A81AB81E8
:102C7000BC8180931C0590931D05A0931E05B09305
:102C80001F05C0921002D0921102E0921202F0923F
:102C90001302C0921402D0921502E0921602F09232
:102CA000170220E030E040E85FE3C701B6010E9470
:102CB000CF1A6FEF1816D4F020E030E0A901C70159
:102CC000B6010E94701960E087FD10C020E030E07E
:102CD0004FE753E4C701B6010E94D41A20E030E068
:102CE00040E05FE30E9404190E94EE1970E086E064
:102CF0000E94290443E250E06AE675E087E995E026
:102D00000E9482058EE093E00E94C2088FE493E067
:102D10000E94D008609181057091820580918305A1
:102D20009091840542E050E00E94E70A84E693E037
:102D30000E94D00860917D0570917E0580917F058D
:102D40009091800542E050E00E94E70A8EE693E011
:102D50000E94C20881E793E00E94D0086091790543
:102D600070917A0580917B0590917C0542E050E05E
:102D70000E94E70A84E693E00E94D00860917505FE
:102D800070917605809177059091780542E050E04A
:102D90000E94E70A8EE693E00E94C20886E893E06C
:102DA0000E94D00860917105709172058091730541
:102DB0009091740542E050E00E94E70A8BE993E0AD
:102DC0000E94C2088EE993E00E94D00860916D05D0
:102DD00070916E0580916F059091700542E050E012
:102DE0000E94E70A83EB93E00E94C20888EB93E01D
:102DF0000E94D008609185057091860580918705B5
:102E00009091880541E050E00E94E70A8DEC93E044
:102E10000E94D0086091890570918A0580918B0588
:102E200090918C0541E050E00E94E70A88ED93E024
:102E30000E94C2088DED93E00E94D00820E030E0AF
:102E400048EC52E4609114027091150280911602D0
:102E5000909117020E94D41A41E050E00E94E70AC4
:102E600082EF93E00E94D008C0901402D090150227
:102E7000E0901602F090170220E030E040E85FE3B7
:102E8000C701B6010E94CF1A6FEF1816D4F020E0E8
:102E900030E0A901C701B6010E94701960E087FD0A
:102EA00010C020E030E04FE753E4C701B6010E94B4
:102EB000D41A20E030E040E05FE30E9404190E9451
:102EC000EE1970E090E080E04AE00E947E0883E026
:102ED00094E00E94C20885E094E00E94D0088091AE
:102EE0008D058111DCC08AE194E00E94C20889E46A
:102EF00094E00E94C20887E592E00E947108109257
:102F00004A0510924B0510924C0510924D051092F7
:102F100046051092470510924805109249051092F7
:102F200042051092430510924405109245051092F7
:102F30003E0510923F0510924005109241051092F7
:102F40003A0510923B0510923C0510923D051092F7
:102F500036051092370510923805109239051092F7
:102F600032051092330510923405109235051092F7
:102F70002E0510922F0510923005109231051092F7
:102F80002D0510922C050E948F06FAC9C12CD12C58
:102F900020E4E22E21ECF22EA6CAC701B601905819
:102FA00020E030E04AE754E4BACAC12CD12C7601C3
:102FB00000CC51E0598727E137EB41ED58EBC501D3
:102FC000B4010E94CF1A18160CF407CE198605CE4C
:102FD000A5019401C301B2010E9475192B013C01A6
:102FE0002D813E814F81588569817A818B819C81B9
:102FF00090580E94751969877A878B879C879B01F7
:10300000AC01C301B2010E9403194B015C0120E035
:1030100030E0A9010E94CF1A1816FCF42FE632E125
:1030200043E85AE3C501B4010E94701987FDFCCD45
:1030300029853A854B855C85C301B2010E94CF1A70
:103040002AE037ED43EA5BE318169CF4C701B601AA
:103050000E9403196B017C01E7CD2FE632E143E8C2
:103060005AEBC501B4010E94CF1A18160CF4DCCD3E
:10307000DFCFC701B6010E940419ECCF93E3C92E3C
:10308000DC2C93E7E92E9FE3F92EE3CD8AE9C82EE5
:1030900089E9D82E89E1E82E8EE3F82EDACD85E293
:1030A00094E00E94D00860912405709125058091DC
:1030B00026059091270543E050E00E94E70A89E346
:1030C00094E00E94D008209124053091250540917C
:1030D00026055091270560E070E080EA90E40E94A8
:1030E000031943E050E00E94E70A84E494E0FDCE37
:1030F000052E97FB1EF400940E948F1857FD07D0F1
:103100000E94A21807FC03D04EF40C948F1850951F
:103110004095309521953F4F4F4F5F4F08959095C3
:103120008095709561957F4F8F4F9F4F08950E94B6
:10313000C418A59F900DB49F900DA49F800D911D64
:1031400011240895A1E21A2EAA1BBB1BFD010DC07C
:10315000AA1FBB1FEE1FFF1FA217B307E407F50747
:1031600020F0A21BB30BE40BF50B661F771F881F23
:10317000991F1A9469F760957095809590959B01B9
:10318000AC01BD01CF010895A29FB001B39FC00162
:10319000A39F700D811D1124911DB29F700D811D83
:1031A0001124911D089597FB072E16F4009407D063
:1031B00077FD09D00E94EF1807FC05D03EF49095EA
:1031C00081959F4F0895709561957F4F0895EE0FFB
:1031D000FF1F881F8BBF0790F691E02D1994AA1B43
:1031E000BB1B51E107C0AA1FBB1FA617B70710F0F2
:1031F000A61BB70B881F991F5A95A9F78095909524
:10320000BC01CD0108955058BB27AA270E941B1965
:103210000C94951A0E94871A38F00E948E1A20F09A
:1032200039F49F3F19F426F40C94841A0EF4E095B7
:10323000E7FB0C947E1AE92F0E94A61A58F3BA17DE
:10324000620773078407950720F079F4A6F50C94BC
:10325000C81A0EF4E0950B2EBA2FA02D0B01B90160
:1032600090010C01CA01A0011124FF27591B99F0FC
:10327000593F50F4503E68F11A16F040A22F232F08
:10328000342F4427585FF3CF469537952795A79558
:10329000F0405395C9F77EF41F16BA0B620B730BFF
:1032A000840BBAF09150A1F0FF0FBB1F661F771F70
:1032B000881FC2F70EC0BA0F621F731F841F48F425
:1032C000879577956795B795F7959E3F08F0B0CFAE
:1032D0009395880F08F09927EE0F97958795089595
:1032E0000E945A1A08F481E008950E9489190C94EA
:1032F000951A0E948E1A58F00E94871A40F029F4FD
:103300005F3F29F00C947E1A51110C94C91A0C9449
:10331000841A0E94A61A68F39923B1F3552391F3F6
:10332000951B550BBB27AA2762177307840738F034
:103330009F5F5F4F220F331F441FAA1FA9F335D091
:103340000E2E3AF0E0E832D091505040E695001C45
:10335000CAF72BD0FE2F29D0660F771F881FBB1FFF
:10336000261737074807AB07B0E809F0BB0B802DDD
:10337000BF01FF2793585F4F3AF09E3F510578F009
:103380000C947E1A0C94C91A5F3FE4F3983ED4F370
:10339000869577956795B795F7959F5FC9F7880FDD
:1033A000911D9695879597F90895E1E0660F771F2F
:1033B000881FBB1F621773078407BA0720F0621BC0
:1033C000730B840BBA0BEE1F88F7E09508950E94EB
:1033D000EE196894B1110C94C91A08950E94AE1A9E
:1033E00088F09F5798F0B92F9927B751B0F0E1F0C6
:1033F000660F771F881F991F1AF0BA95C9F714C076
:10340000B13091F00E94C81AB1E008950C94C81A26
:10341000672F782F8827B85F39F0B93FCCF38695AE
:1034200077956795B395D9F73EF49095809570950B
:1034300061957F4F8F4F9F4F0895E89409C097FB88
:103440003EF490958095709561957F4F8F4F9F4F7B
:103450009923A9F0F92F96E9BB279395F6958795BF
:1034600077956795B795F111F8CFFAF4BB0F11F482
:1034700060FF1BC06F5F7F4F8F4F9F4F16C0882329
:1034800011F096E911C0772321F09EE8872F762F5F
:1034900005C0662371F096E8862F70E060E02AF0A0
:1034A0009A95660F771F881FDAF7880F969587958C
:1034B00097F90895990F0008550FAA0BE0E8FEEF61
:1034C00016161706E807F907C0F012161306E407E8
:1034D000F50798F0621B730B840B950B39F40A26E1
:1034E00061F0232B242B252B21F408950A2609F4BF
:1034F000A140A6958FEF811D811D089597F99F67C3
:1035000080E870E060E008959FEF80EC089500246B
:103510000A941616170618060906089500240A9438
:1035200012161306140605060895092E0394000CBE
:1035300011F4882352F0BB0F40F4BF2B11F460FF4D
:1035400004C06F5F7F4F8F4F9F4F089557FD905876
:10355000440F551F59F05F3F71F04795880F97FB57
:10356000991F61F09F3F79F0879508951216130611
:103570001406551FF2CF4695F1DF08C01616170640
:103580001806991FF1CF8695710561050894089575
:10359000E894BB2766277727CB0197F908950E9407
:1035A0005A1A08F48FEF08950E94E71A0C94951A9E
:1035B0000E94871A38F00E948E1A20F0952311F08D
:1035C0000C947E1A0C94841A11240C94C91A0E942B
:1035D000A61A70F3959FC1F3950F50E0551F629F97
:1035E000F001729FBB27F00DB11D639FAA27F00D5C
:1035F000B11DAA1F649F6627B00DA11D661F829F83
:103600002227B00DA11D621F739FB00DA11D621F67
:10361000839FA00D611D221F749F3327A00D611D84
:10362000231F849F600D211D822F762F6A2F112466
:103630009F5750409AF0F1F088234AF0EE0FFF1F99
:10364000BB1F661F771F881F91505040A9F79E3FF0
:10365000510580F00C947E1A0C94C91A5F3FE4F374
:10366000983ED4F3869577956795B795F795E79546
:103670009F5FC1F7FE2B880F911D9695879597F94F
:1036800008950E945A1A880B990B08950F931F935F
:10369000CF93DF938230910510F482E090E0E091C7
:1036A000D306F091D40630E020E0B0E0A0E03097FF
:1036B00099F42115310509F44AC0281B390B24302F
:1036C0003105D8F58A819B816115710589F1FB016E
:1036D00093838283FE0111C0408151810281138155
:1036E00048175907E0F04817590799F4109761F007
:1036F00012960C93129713961C933296CF01DF917A
:10370000CF911F910F9108950093D3061093D40683
:10371000F4CF2115310551F04217530738F0A901B4
:10372000DB019A01BD01DF01F801C1CFEF01F9CF43
:103730009093D4068093D306CDCFFE01E20FF31F02
:10374000819391932250310939832883D7CF2091D7
:10375000D1063091D206232B41F420911A023091E8
:103760001B023093D2062093D1062091180230918B
:1037700019022115310541F42DB73EB740911C02C5
:1037800050911D02241B350BE091D106F091D20619
:10379000E217F307A0F42E1B3F0B2817390778F028
:1037A000AC014E5F5F4F2417350748F04E0F5F1F87
:1037B0005093D2064093D106819391939FCFF0E02E
:1037C000E0E09CCFCF93DF930097E9F0FC013297C4
:1037D00013821282A091D306B091D406ED0130E09D
:1037E00020E01097A1F420813181820F931F209156
:1037F000D1063091D2062817390709F061C0F0933D
:10380000D206E093D106DF91CF910895EA01CE1759
:10381000DF07E8F54A815B819E0141155105B1F74B
:10382000E901FB83EA8349915991C40FD51FEC1735
:10383000FD0761F4808191810296840F951FE90153
:1038400099838883828193819B838A83F0E0E0E07F
:1038500012968D919C9113970097B9F52D913C91FB
:103860001197CD010296820F931F2091D1063091BE
:10387000D2062817390739F6309751F51092D40639
:103880001092D306B093D206A093D106BCCFD383B7
:10389000C28340815181840F951FC817D90761F4F5
:1038A0004E5F5F4F88819981480F591F5183408334
:1038B0008A819B81938382832115310509F0B0CFE2
:1038C000F093D406E093D3069ECFFD01DC01C0CF78
:0A38D00013821282D7CFF894FFCFC5
:1038DA0081058105810581058105810581058105AE
:1038EA000000003F0000003F0000D50680003F5F57
:1038FA007F5E00BC0077012409CDCCCC3D2509CDE3
:10390A00CCCC3D36CDCCCC3D9A99193E37CDCCCCDA
:10391A003D9A99193E0000000022068205AF056F04
:10392A0006E005BE05D2050D0A006E616E00696EDD
:10393A0066006F76660043616C6962726174696ED3
:10394A0067205265637469666965722048616C6CA8
:10395A002053656E736F7220284130292E2E2E0057
:10396A0043616C6962726174696E6720436F6E7637
:10397A0065727465722048616C6C2053656E736F52
:10398A007220284131292E2E2E00496E7469616CED
:10399A00697A6174696F6E20636F6D706C657465A6
:1039AA00003E3E3E20452D53544F5020434F4D4D2F
:1039BA00414E442056455249464945442046524FB5
:1039CA004D20455350333220E28094204252414BDD
:1039DA004520454E4741474544203C3C3C00E29443
:1039EA008CE29480E29480E29480204555525553AB
:1039FA0020504F5745522042555320283530306DBC
:103A0A0073204176657261676564204672616D65EF
:103A1A002920E29480E29480E29480E2949000E289
:103A2A0094822052656374696669657220496E20C2
:103A3A00203A20002056202020402020200020412B
:103A4A0000E2948220436F6E766572746572204F2D
:103A5A007574203A2000E294822054757262696E6D
:103A6A006520506F776572203A2000205700E29453
:103A7A008220526F746F7220537065656420202013
:103A8A003A20002052504D00E2948220506974631B
:103A9A0068202F2054656D7020203A200020C2B083
:103AAA002020202F2020200020C2B04300E2948250
:103ABA00204D505054204472697665202020203AC7
:103ACA00200020252020202850574D20476174656A
:103ADA003A20002900E29482204272616B652053E9
:103AEA00746174757320203A2000434C454152207A
:103AFA005B4F4B5D005B5B20454E47414745442089
:103B0A005D5D2020706F733D002072616420206526
:103B1A0072723D002072616400E29494E29480E241
:103B2A009480E29480E29480E29480E29480E29429
:103B3A0080E29480E29480E29480E29480E294802D
:103B4A00E29480E29480E29480E29480E29480E2BB
:103B5A009480E29480E29480E29480E29480E294F9
:103B6A0080E29480E29480E29480E29480E29480FD
:103B7A00E29480E29480E29480E29480E29480E28B
:103B8A009480E29480E29480E29480E29480E294C9
:103B9A0080E29480E29480E29480E29480E29480CD
:0A3BAA00E29480E29480E294980017
:00000001FF
