:100000000C945D000C9485000C9485000C94850084
:100010000C9485000C9485000C9485000C9485004C
:100020000C9485000C9485000C9485000C9485003C
:100030000C9485000C9485000C9485000C9485002C
:100040000C948D020C9485000C94FD020C94D70244
:100050000C9485000C9485000C9485000C9485000C
:100060000C9485000C94850000000008000201003B
:100070000003040700000000000000000000000072
:10008000250028002B0000000000240027002A0083
:10009000040404040404040402020202020203032E
:1000A0000303030301020408102040800102040836
:1000B0001020010204081020BE0411241FBECFEF3F
:1000C000D8E0DEBFCDBF11E0A0E0B1E0EAEAFAE09F
:1000D00002C005900D92A033B107D9F721E0A0E34B
:1000E000B1E001C01D92A63DB207E1F710E0CDE5F9
:1000F000D0E004C02197FE010E944D05CC35D10708
:10010000C9F70E942F030C9453050C94000090E053
:10011000FC01EC55FF4F249180579F4FFC018491C7
:10012000882399F090E0880F991FFC01EA57FF4F50
:10013000A591B491FC01E458FF4F859194918FB73C
:10014000F894EC91E22BEC938FBF089590E0FC01C2
:10015000E859FF4F2491FC01EC55FF4F3491FC010D
:10016000E057FF4FE491EE23C9F0222339F023300A
:1001700001F1A8F4213019F1223029F1F0E0EE0F5D
:10018000FF1FE458FF4FA591B4918FB7F894EC91FD
:10019000611126C030953E233C938FBF08952730D0
:1001A000A9F02830C9F0243049F7809180008F7D74
:1001B00003C0809180008F7780938000DFCF84B56B
:1001C0008F7784BDDBCF84B58F7DFBCF8091B0006E
:1001D0008F778093B000D2CF8091B0008F7DF9CF20
:1001E0003E2BDACFAF92BF92CF92DF92EF92FF9287
:1001F0000F931F93CF93DF936C017B018B01040F4F
:10020000151FEB015E01AE18BF08C017D10759F0EA
:100210006991D601ED91FC910190F081E02DC6012C
:100220000995892B79F7C501DF91CF911F910F9126
:10023000FF90EF90DF90CF90BF90AF900895FC01BA
:10024000538D448D252F30E0842F90E0821B930B3B
:10025000541710F0CF96089501970895FC01918DE1
:10026000828D981761F0A28DAE0FBF2FB11D5D96E4
:100270008C91928D9F5F9F73928F90E008958FEF86
:100280009FEF0895FC01918D828D981731F0828D3A
:10029000E80FF11D858D90E008958FEF9FEF089591
:1002A0002FB7F8948091350190913601A0913701D4
:1002B000B09138012FBF8093410190934201A093E8
:1002C0004301B093440189E391E00E94420197FF0A
:1002D00026C02FB7F8948091350190913601A091F6
:1002E0003701B09138012FBF409141015091420137
:1002F0006091430170914401841B950BA60BB70BD1
:1003000040913D0150913E0160913F01709140014B
:1003100084179507A607B707B0F28FEF9FEF0895F0
:10032000FC01918D228D892F90E0805C9F4F821B74
:1003300091098F739927089589E391E00E949001B4
:1003400021E0892B09F420E0822F089580E090E0DD
:10035000892B29F00E949C0181110C9400000895C2
:10036000FC01A48DA80FB92FB11DA35ABF4F2C912A
:10037000848D90E001968F739927848FA689B78921
:100380002C93A089B1898C91837080648C93938D18
:10039000848D981306C00288F389E02D80818F7DBB
:1003A00080830895EF92FF920F931F93CF93DF9373
:1003B000EC0181E0888F9B8D8C8D98131AC0E889A1
:1003C000F989808185FF15C09FB7F894EE89FF8970
:1003D0006083E889F98980818370806480839FBF0E
:1003E00081E090E0DF91CF911F910F91FF90EF900E
:1003F0000895F62E0B8D10E00F5F1F4F0F7311271E
:10040000E02E8C8D8E110CC00FB607FCFACFE88958
:10041000F989808185FFF5CFCE010E94B001F1CF2F
:10042000EB8DEC0FFD2FF11DE35AFF4FF0829FB7CC
:10043000F8940B8FEA89FB8980818062CFCFCF93BC
:10044000DF93EC01888D8823B9F0AA89BB89E889FC
:10045000F9898C9185FD03C0808186FD0DC00FB6A2
:1004600007FCF7CF8C9185FFF2CF808185FFEDCF20
:10047000CE010E94B001E9CFDF91CF9108958F9214
:100480009F92AF92BF920F931F93CF93DF93CDB7FD
:10049000DEB7A1970FB6F894DEBF0FBECDBF19A28D
:1004A000423008F44AE08E010F5D1F4F842E912CDC
:1004B000B12CA12CA50194010E941505E62FB901CC
:1004C000CA01EA3044F5E05DD801EE938D01232B9B
:1004D000242B252B79F790E080E0109769F0FD013F
:1004E00001900020E9F73197AF014A1B5B0BBD017A
:1004F00089E391E00E94F200A1960FB6F894DEBF66
:100500000FBECDBFDF91CF911F910F91BF90AF90E4
:100510009F908F900895E95CD7CF1F920F920FB6EE
:100520000F9211242F933F938F939F93AF93BF9379
:100530008091350190913601A0913701B091380139
:100540003091340123E0230F2D3758F50196A11D7A
:10055000B11D209334018093350190933601A0930F
:100560003701B09338018091300190913101A09111
:100570003201B09133010196A11DB11D809330016C
:1005800090933101A0933201B0933301BF91AF91A9
:100590009F918F913F912F910F900FBE0F901F90C1
:1005A000189526E8230F0296A11DB11DD2CF1F92E8
:1005B0000F920FB60F9211242F933F934F935F9397
:1005C0006F937F938F939F93AF93BF93EF93FF931B
:1005D00089E391E00E94B001FF91EF91BF91AF914B
:1005E0009F918F917F916F915F914F913F912F914B
:1005F0000F900FBE0F901F9018951F920F920FB67D
:100600000F9211242F938F939F93EF93FF93E09179
:100610004901F0914A018081E0914F01F091500130
:1006200082FD1BC09081809152018F5F8F7320915A
:100630005301821741F0E0915201F0E0E75CFE4F78
:10064000958F80935201FF91EF919F918F912F9100
:100650000F900FBE0F901F9018958081F4CF789463
:1006600084B5826084BD84B5816084BD85B58260B7
:1006700085BD85B5816085BD80916E008160809368
:100680006E001092810080918100826080938100D1
:1006900080918100816080938100809180008160E1
:1006A000809380008091B10084608093B10080913C
:1006B000B00081608093B00080917A008460809364
:1006C0007A0080917A00826080937A0080917A002B
:1006D000816080937A0080917A00806880937A00AC
:1006E0001092C100E0914901F0914A0182E08083BB
:1006F000E0914501F09146011082E0914701F091AF
:1007000048018FEC808310925101E0914D01F091EE
:100710004E0186E08083E0914B01F0914C01808195
:1007200080618083E0914B01F0914C018081886071
:100730008083E0914B01F0914C018081806880833F
:10074000E0914B01F0914C0180818F7D808387E0A7
:100750000E94870086E00E94870060E087E00E9498
:10076000A60086E00E94870060E086E00E94A60066
:1007700084E6882E912CA12CB12C0EE610E0C0E06E
:10078000D0E089E391E00E949001181619060CF060
:1007900098C00E945001FC0197FD54C08D32910514
:1007A00021F0C0970A9708F045C0C12CD12C7601E2
:1007B000712CE130F105D9F0ED32F10509F43FC0BB
:1007C000CF01C0970A9798F4AAE0B0E0A70196017C
:1007D0000E940A056F01FF0FEE08FF08C60ED71E24
:1007E000E81EF91E80E3C81AD108E108F10889E380
:1007F00091E00E942E010E945001FC01C0970A97CF
:10080000C0F2E130F105A9F2772041F0F094E094D4
:10081000D094C094C11CD11CE11CF11C89E391E06F
:100820000E949001181619068CF489E391E00E9449
:100830002E01F4CF89E391E00E942E01AACF772404
:100840007394D5CFC12CD12C7601E8CFE5E6CE1636
:10085000D10408F08AC026010D2C000C6608770828
:10086000D6012FEF30E00E944605A50194010E94B9
:10087000EB04F22ED22EE22E4EE050E062E171E067
:1008800089E391E00E94F2004AE0C301B20177FEE1
:100890000DC06DE289E391E00E94D20166277727BF
:1008A000CB0164197509860997094AE00E943F0245
:1008B00086E00E948700E1100FC060E086E00E94A1
:1008C000A600209709F45DCF0E949C01882309F4BB
:1008D00058CF0E94000055CFFFEFEF1202C061E039
:1008E000EDCFF8018491833021F138F48130B9F0F3
:1008F0008230D1F0D7FCF3CFE0CF873031F18830B0
:1009000061F18430B9F7809180008062809380002B
:100910008F2D90E090938B0080938A00D2CF84B586
:10092000806884BDF7BCCDCF84B5806284BDF8BC3F
:10093000C8CF809180008068809380008F2D90E0E8
:100940009093890080938800BCCF8091B00080682C
:100950008093B000F092B300B4CF8091B000806279
:100960008093B000F092B400ACCF4DE050E061E273
:1009700071E089E391E00E94F200A3CFE9E3F1E0A6
:100980001382128288EE93E0A0E0B0E08483958326
:10099000A683B78384E091E09183808385EC90E027
:1009A0009587848784EC90E09787868780EC90E039
:1009B000918B808B81EC90E0938B828B82EC90E02A
:1009C000958B848B86EC90E0978B868B118E128EA4
:1009D000138E148E0895052E97FB1EF400940E942A
:1009E000020557FD07D00E94150507FC03D04EF401
:1009F0000C94020550954095309521953F4F4F4FEF
:100A00005F4F089590958095709561957F4F8F4FBA
:100A10009F4F08950E943705A59F900DB49F900D9C
:100A2000A49F800D911D11240895A1E21A2EAA1BE6
:100A3000BB1BFD010DC0AA1FBB1FEE1FFF1FA2178E
:100A4000B307E407F50720F0A21BB30BE40BF50B8B
:100A5000661F771F881F991F1A9469F76095709514
:100A6000809590959B01AC01BD01CF010895A29F97
:100A7000B001B39FC001A39F700D811D1124911D72
:100A8000B29F700D811D1124911D08950E9437059C
:100A9000B7FF0895821B930B0895EE0FFF1F05907B
:0A0AA000F491E02D0994F894FFCFC3
:100AAA0000000000D201F2001F011F0290012E0176
:100ABA004201252044757479204379636C653A2094
:100ACA0000496E76616C696420696E707574000005
:00000001FF
