:100000000C9462000C944B040C9424040C948A000D
:100010000C948A000C948A000C948A000C948A0038
:100020000C948A000C948A000C948A000C948A0028
:100030000C948A000C948A000C948A000C948A0018
:100040000C94DA030C948A000C9498040C947204B7
:100050000C948A000C948A000C948A000C948A00F8
:100060000C948A000C948A000000000023002600F3
:10007000290000000000240027002A0000000000E2
:10008000250028002B0004040404040404040202D4
:100090000202020203030303030301020408102007
:1000A0004080010204081020010204081020000012
:1000B0000008000201000003040700000000000027
:1000C0000000260811241FBECFEFD8E0DEBFCDBF51
:1000D00012E0A0E0B1E0E2EFF5E102C005900D9280
:1000E000A230B107D9F722E0A2E0B2E001C01D9230
:1000F000A03CB207E1F710E0C2E6D0E004C02197CF
:10010000FE010E94D209C136D107C9F70E94CA0474
:100110000C94F70A0C940000833081F028F48130AD
:1001200099F08230A9F008958730A9F08830C9F09D
:100130008430B1F4809180008F7D03C08091800075
:100140008F7780938000089584B58F7784BD08955C
:1001500084B58F7DFBCF8091B0008F778093B00006
:1001600008958091B0008F7DF9CF1F93CF93DF93D7
:10017000282F30E0F901E255FF4F8491F901E6564E
:10018000FF4FD491F901EA57FF4FC491CC23A9F056
:10019000162F81110E948C00EC2FF0E0EE0FFF1F54
:1001A000E458FF4FA591B4918FB7F894EC911111D9
:1001B00008C0D095DE23DC938FBFDF91CF911F91D4
:1001C0000895DE2BF8CFCF93DF9390E0FC01E65645
:1001D000FF4F24918A579F4FFC0184918823D1F0CF
:1001E00090E0880F991FFC01EE58FF4FA591B49144
:1001F000FC01E458FF4FC591D491623071F49FB770
:10020000F8943C91822F809583238C93E8812E2B48
:1002100028839FBFDF91CF9108958FB7F894EC9119
:100220002E2B2C938FBFF6CF0895AF92BF92CF9213
:10023000DF92EF92FF920F931F93CF93DF936C01A6
:100240007B018B01040F151FEB015E01AE18BF0887
:10025000C017D10759F06991D601ED91FC91019039
:10026000F081E02DC6010995892B79F7C501DF9151
:10027000CF911F910F91FF90EF90DF90CF90BF90A3
:10028000AF900895FC01538D448D252F30E0842FCD
:1002900090E0821B930B541710F0CF9608950197AE
:1002A0000895FC01918D828D981761F0A28DAE0F9B
:1002B000BF2FB11D5D968C91928D9F5F9F73928F22
:1002C00090E008958FEF9FEF0895FC01918D828D4E
:1002D000981731F0828DE80FF11D858D90E008951B
:1002E0008FEF9FEF08952FB7F89480911F029091A0
:1002F0002002A0912102B09122022FBF80932B02F5
:1003000090932C02A0932D02B0932E0283E292E0F0
:100310000E94650197FF26C02FB7F89480911F02B5
:1003200090912002A0912102B09122022FBF409112
:100330002B0250912C0260912D0270912E02841B91
:10034000950BA60BB70B40912702509128026091A4
:10035000290270912A0284179507A607B707B0F201
:100360008FEF9FEF0895FC01918D228D892F90E0F2
:10037000805C9F4F821B91098F739927089583E2B8
:1003800092E00E94B30121E0892B09F420E0822F42
:10039000089580E090E0892B29F00E94BF0181112F
:1003A0000C9400000895FC01A48DA80FB92FB11D75
:1003B000A35ABF4F2C91848D90E001968F7399279B
:1003C000848FA689B7892C93A089B1898C91837079
:1003D00080648C93938D848D981306C00288F38972
:1003E000E02D80818F7D80830895EF92FF920F939F
:1003F0001F93CF93DF93EC0181E0888F9B8D8C8DD1
:1004000098131AC0E889F989808185FF15C09FB7C4
:10041000F894EE89FF896083E889F9898081837087
:10042000806480839FBF81E090E0DF91CF911F9136
:100430000F91FF90EF900895F62E0B8D10E00F5F57
:100440001F4F0F731127E02E8C8D8E110CC00FB62D
:1004500007FCFACFE889F989808185FFF5CFCE01C5
:100460000E94D301F1CFEB8DEC0FFD2FF11DE35A6C
:10047000FF4FF0829FB7F8940B8FEA89FB89808148
:100480008062CFCFCF93DF93EC01888D8823B9F0C2
:10049000AA89BB89E889F9898C9185FD03C080818F
:1004A00086FD0DC00FB607FCF7CF8C9185FFF2CF0C
:1004B000808185FFEDCFCE010E94D301E9CFDF918E
:1004C000CF910895CF93DF93E1EBF0E08491EDE9D4
:1004D000F0E0D491E9E8F0E0C491CC2321F181115E
:1004E0000E948C00EC2FF0E0EE0FFF1FE859FF4F49
:1004F000A591B491EC91ED23B1F08091120290910D
:100500001302A0911402B09115020197A109B1093B
:100510008093120290931302A0931402B0931502D9
:10052000DF91CF9108958091120290911302A091D2
:100530001402B09115020196A11DB11DE9CFFC0175
:1005400001900020E9F73197AF01481B590BBC011E
:1005500083E292E00C9415018F929F92AF92BF922A
:100560000F931F93CF93DF93CDB7DEB7A1970FB64D
:10057000F894DEBF0FBECDBF19A2423008F44AE0A6
:100580008E010F5D1F4F842E912CB12CA12CA50143
:1005900094010E94A109E62FB901CA01EA30F4F4DE
:1005A000E05DD801EE938D01232B242B252B79F7C9
:1005B00090E080E0109719F0CD010E949F02A19673
:1005C0000FB6F894DEBF0FBECDBFDF91CF911F9164
:1005D0000F91BF90AF909F908F900895E95CE1CF0D
:1005E000CF93DF930E949F02EC0186E191E00E948D
:1005F0009F028C0F9D1FDF91CF9108954F925F92C4
:100600006F927F928F929F92AF92BF92CF92DF9222
:10061000EF92FF920F931F93CF936B017C01742E87
:10062000AC019B010E94F20A882399F089E191E0D4
:10063000CF911F910F91FF90EF90DF90CF90BF90DF
:10064000AF909F908F907F906F905F904F900C94A1
:100650009F0246015701E894B7F82FEF3FEF4FE7AD
:100660005FE7C501B4010E94F20A81110DC02FEFAE
:100670003FEF4FE75FE7C501B4010E94530818162A
:100680001CF48DE191E0D4CF2FEF3FEF4FE75FE413
:10069000C701B6010E94ED0A18161CF481E291E030
:1006A000C7CF2FEF3FEF4FE75FECC701B6010E94C6
:1006B000530887FDF3CF20E030E0A901C701B60160
:1006C0000E94530810E000E087FF0AC06DE283E259
:1006D00092E00E94F5018C01F7FAF094F7F8F0949B
:1006E000C0E060E070E080E09FE37C1641F020E035
:1006F00030E040E251E40E94450ACF5FF6CFA70107
:1007000096010E94D9092B013C010E94BE0A4B01AF
:100710005C014AE00E94AC027C01E00EF11ECC2399
:10072000C1F1C501B4010E9458089B01AC01C3018D
:10073000B2010E94D8094B015C016EE283E292E0B3
:100740000E94F501E80EF91EC15018F120E030E0DA
:1007500040E251E4C501B4010E94B9082B013C01FB
:100760000E94BE0A4B01B12CA12C4AE0C501B40184
:100770000E94AC02E80EF91EC501B4010E9458089F
:100780009B01AC01C301B2010E94D8094B015C017D
:10079000DBCFC701CF911F910F91FF90EF90DF90BA
:1007A000CF90BF90AF909F908F907F906F905F9011
:1007B0004F9008951F920F920FB60F9211242F930E
:1007C0003F938F939F93AF93BF9380911F0290911C
:1007D0002002A0912102B091220230911E0223E05A
:1007E000230F2D3758F50196A11DB11D20931E0230
:1007F00080931F0290932002A0932102B0932202C3
:1008000080911A0290911B02A0911C02B0911D02CE
:100810000196A11DB11D80931A0290931B02A09313
:100820001C02B0931D02BF91AF919F918F913F9198
:100830002F910F900FBE0F901F90189526E8230F51
:100840000296A11DB11DD2CF1F920F920FB60F922B
:1008500011242F933F934F935F936F937F938F93C5
:100860009F93AF93BF93EF93FF93E0910201F091B9
:1008700003010995FF91EF91BF91AF919F918F91E6
:100880007F916F915F914F913F912F910F900FBE8C
:100890000F901F9018951F920F920FB60F92112470
:1008A0002F933F934F935F936F937F938F939F9378
:1008B000AF93BF93EF93FF93E0910001F09101019B
:1008C0000995FF91EF91BF91AF919F918F917F918A
:1008D0006F915F914F913F912F910F900FBE0F90AD
:1008E0001F9018951F920F920FB60F9211242F93FD
:1008F0003F934F935F936F937F938F939F93AF93A8
:10090000BF93EF93FF9383E292E00E94D301FF91A4
:10091000EF91BF91AF919F918F917F916F915F9177
:100920004F913F912F910F900FBE0F901F901895F0
:100930001F920F920FB60F9211242F938F939F93B4
:10094000EF93FF93E0913302F09134028081E091C4
:100950003902F0913A0282FD1BC0908180913C02E5
:100960008F5F8F7320913D02821741F0E0913C022E
:10097000F0E0ED5DFD4F958F80933C02FF91EF918C
:100980009F918F912F910F900FBE0F901F901895F0
:100990008081F4CFCF93DF9300D000D01F92CDB7EA
:1009A000DEB7789484B5826084BD84B5816084BDEF
:1009B00085B5826085BD85B5816085BD80916E00FD
:1009C000816080936E00109281008091810082602E
:1009D000809381008091810081608093810080916B
:1009E00080008160809380008091B100846080935A
:1009F000B1008091B00081608093B00080917A0056
:100A0000846080937A0080917A00826080937A007B
:100A100080917A00816080937A0080917A0080686A
:100A200080937A001092C100E0913302F091340279
:100A300082E08083E0912F02F09130021082E091F9
:100A40003102F09132028FEC808310923B02E091F0
:100A50003702F091380286E08083E0913502F09110
:100A60003602808180618083E0913502F091360208
:100A7000808188608083E0913502F0913602808128
:100A800080688083E0913502F091360280818F7D0D
:100A9000808362E082E00E94E30062E083E00E94E3
:100AA000E30082E692E0909301018093000180913F
:100AB0006900836080936900E89A61E088E00E94A1
:100AC000E30061E089E00E94E30060E088E00E94CA
:100AD000B50061E089E00E94E30060E089E00E94E7
:100AE000B50085E291E00E94F0028AE491E00E9464
:100AF000F0028AE891E00E94F0022FB7F89480910A
:100B00001F0290912002A0912102B09122022FBFDA
:100B10008093160290931702A0931802B0931902C3
:100B200037EB232E30E0332E00E010E08FB7F8943F
:100B300040901F025090200260902102709022028B
:100B40008FBF8091160290911702A0911802B09168
:100B50001902A3019201281B390B4A0B5B0BCA0136
:100B6000B9010E94580820E030E040E251E40E94C0
:100B7000ED0A87FDE8C0409216025092170260927B
:100B8000180270921902F894609112027091130287
:100B9000809114029091150278940E945A0820E0E6
:100BA00030EE49E055E40E94450A9B01AC010E94E9
:100BB000D9092BED3FE049E450E40E94B9089B01BC
:100BC000AC0120930E0230930F0240931002509319
:100BD000110260910A0270910B0280910C029091B7
:100BE0000D020E94D8094B015C0120910602309150
:100BF000070240910802509109020E94D8092AE098
:100C000037ED43E25CE30E94450A2EE93FEE47EAF6
:100C10005CE30E94B9086B017C0124E63BE343E8F6
:100C200050E4C501B4010E94B9089B01AC01C701A1
:100C3000B6010E94D9096B017C0120E030E040E45C
:100C400051EC0E94530887FD27C020E030E040E4CB
:100C500051E4C701B6010E94ED0A181634F4C12C04
:100C6000D12C20E4E22E21E4F22E20E030E0A90194
:100C7000C501B4010E94ED0A1816ACF42AE037ED64
:100C800043E25CE3C501B4010E94530887FF15C02D
:100C9000C12CD12C76011AC0C12CD12C90E4E92EA4
:100CA00091ECF92EE2CF2AE037ED43E25CEBC5018F
:100CB000B4010E94ED0A18165CF320E030E0A901AF
:100CC000C701B6010E94ED0A61E087FF60E088E09D
:100CD0000E94B50020E030E0A901C701B6010E94E2
:100CE000ED0A18160CF04DC020E030E04AE754E45D
:100CF000C701B6010E94B9080E94B70AAFEFB0E081
:100D00009B01AC010E94960920EE3EE240E050E0DB
:100D10000E947709F22EE32E29833A8361E089E06D
:100D20000E94E30049815A811416150694F160E08F
:100D300089E00E94B5008092060290920702A0927C
:100D40000802B092090283E292E00E94B3011816F1
:100D500019060CF016C10E947301FC0197FDEDC04D
:100D60008D32910509F463C0C0970A9708F45FC0FB
:100D7000EE32F10509F45BC083E292E00E9451017A
:100D8000EACFC701B601905820E030E04AE754E4CA
:100D9000B1CF89819A818F3F910514F061E0C8CF6E
:100DA000F1018491833039F150F48130D1F08230F7
:100DB000E9F029813A812038310584F7B8CF8730AE
:100DC00031F1883061F18430A1F780918000806238
:100DD000809380008F2D9E2D90938B0080938A00AE
:100DE000AACF84B5806884BDF7BCA5CF84B58062E6
:100DF00084BDF8BCA0CF8091800080688093800083
:100E00008F2D9E2D909389008093880094CF8091A0
:100E1000B00080688093B000F092B3008CCF8091D6
:100E2000B00080628093B000F092B40084CF812C37
:100E3000912C80E8A82E8FE3B82EC12CD12C7601FE
:100E40001D821982E130F10551F1ED32F105E9F130
:100E5000EE32F105E9F1CF01C0970A9700F5AAE05B
:100E6000B0E0A70196010E9496096F01FF0FEE08FE
:100E7000FF08C60ED71EE81EF91E30E3C31AD108BC
:100E8000E108F1084D81442351F02DEC3CEC4CEC91
:100E90005DE3C501B4010E94B9084B015C0183E226
:100EA00092E00E9451010E947301FC01C0970A97D1
:100EB00048F2EE32F10579F49D81992319F23981D6
:100EC000332319F1B981BD830DC051E05983E7CFB8
:100ED00081E08D83E4CFE130F10509F4B3CFA9813E
:100EE000AA2341F0F094E094D094C094C11CD11C8A
:100EF000E11CF11CC701B6010E945A0869837A837C
:100F00008B839C83ED81EE2361F0C701B6010E94C3
:100F10005A08A50194010E94B90869837A838B83DA
:100F20009C8383E292E00E94B3011816190654F4E0
:100F300083E292E00E945101F4CF19821A821B824F
:100F40001C82EFCF29813A814B815C8120930A0278
:100F500030930B0240930C0250930D0286EB91E00C
:100F60000E949F0260910A0270910B0280910C0214
:100F700090910D0244E00E94FE028AEC91E00E94F2
:100F8000F0028091020290910302A0910402B091BC
:100F90000502A3019201281B390B4A0B5B0BDA01F6
:100FA000C90184369105A105B10508F443C088ED57
:100FB00091E00E949F0260910A0270910B02809161
:100FC0000C0290910D0243E00E94FE0281EE91E03E
:100FD0000E949F0260910E0270910F028091100298
:100FE0009091110243E00E94FE0282EF91E00E9484
:100FF0009F0220910E0230910F02409110025091F9
:10100000110260910A0270910B0280910C02909182
:101010000D020E94D80943E00E94FE0286E191E0A1
:101020000E949F02409202025092030260920402C8
:10103000709205020115110509F478CD0E94BF01D7
:10104000882309F473CD0E94000070CDE3E2F2E042
:101050001382128288EE93E0A0E0B0E0848395834F
:10106000A683B78388E091E09183808385EC90E04C
:101070009587848784EC90E09787868780EC90E062
:10108000918B808B81EC90E0938B828B82EC90E053
:10109000958B848B86EC90E0978B868B118E128ECD
:1010A000138E148E08950E94950808F481E0089527
:1010B000E89409C097FB3EF49095809570956195F2
:1010C0007F4F8F4F9F4F9923A9F0F92F96E9BB27A8
:1010D0009395F695879577956795B795F111F8CF24
:1010E000FAF4BB0F11F460FF1BC06F5F7F4F8F4F8F
:1010F0009F4F16C0882311F096E911C0772321F085
:101100009EE8872F762F05C0662371F096E8862F1C
:1011100070E060E02AF09A95660F771F881FDAF773
:10112000880F9695879597F90895990F0008550FA0
:10113000AA0BE0E8FEEF16161706E807F907C0F05D
:1011400012161306E407F50798F0621B730B840B65
:10115000950B39F40A2661F0232B242B252B21F43F
:1011600008950A2609F4A140A6958FEF811D811DDF
:1011700008950E94CC080C943D090E942F0938F074
:101180000E94360920F0952311F00C9426090C9446
:101190002C0911240C9471090E944E0970F3959F3B
:1011A000C1F3950F50E0551F629FF001729FBB275E
:1011B000F00DB11D639FAA27F00DB11DAA1F649FFA
:1011C0006627B00DA11D661F829F2227B00DA11DAD
:1011D000621F739FB00DA11D621F839FA00D611D33
:1011E000221F749F3327A00D611D231F849F600D54
:1011F000211D822F762F6A2F11249F5750409AF07D
:10120000F1F088234AF0EE0FFF1FBB1F661F771F08
:10121000881F91505040A9F79E3F510580F00C94D3
:1012200026090C9471095F3FE4F3983ED4F3869548
:1012300077956795B795F795E7959F5FC1F7FE2B73
:10124000880F911D9695879597F9089597F99F674F
:1012500080E870E060E008959FEF80EC089500243E
:101260000A941616170618060906089500240A940B
:1012700012161306140605060895092E0394000C91
:1012800011F4882352F0BB0F40F4BF2B11F460FF20
:1012900004C06F5F7F4F8F4F9F4F089557FD905849
:1012A000440F551F59F05F3F71F04795880F97FB2A
:1012B000991F61F09F3F79F08795089512161306E4
:1012C0001406551FF2CF4695F1DF08C01616170613
:1012D0001806991FF1CF8695710561050894089548
:1012E000E894BB2766277727CB0197F90895052E49
:1012F00097FB1EF400940E948E0957FD07D00E94B0
:10130000A10907FC03D04EF40C948E09509540952A
:10131000309521953F4F4F4F5F4F089590958095A1
:10132000709561957F4F8F4F9F4F08950E94C3091D
:10133000A59F900DB49F900DA49F800D911D112429
:101340000895A1E21A2EAA1BBB1BFD010DC0AA1F06
:10135000BB1FEE1FFF1FA217B307E407F50720F01E
:10136000A21BB30BE40BF50B661F771F881F991F99
:101370001A9469F760957095809590959B01AC01E2
:10138000BD01CF010895A29FB001B39FC001A39FEB
:10139000700D811D1124911DB29F700D811D1124AE
:1013A000911D0895EE0FFF1F0590F491E02D099413
:1013B0005058BB27AA270E94F0090C943D090E94AF
:1013C0002F0938F00E94360920F039F49F3F19F4B4
:1013D00026F40C942C090EF4E095E7FB0C942609F6
:1013E000E92F0E944E0958F3BA1762077307840762
:1013F000950720F079F4A6F50C9470090EF4E095A9
:101400000B2EBA2FA02D0B01B90190010C01CA01BE
:10141000A0011124FF27591B99F0593F50F4503E69
:1014200068F11A16F040A22F232F342F4427585F5B
:10143000F3CF469537952795A795F0405395C9F773
:101440007EF41F16BA0B620B730B840BBAF091502B
:10145000A1F0FF0FBB1F661F771F881FC2F70EC0CA
:10146000BA0F621F731F841F48F48795779567959D
:10147000B795F7959E3F08F0B0CF9395880F08F089
:101480009927EE0F9795879508950E94590A0C9415
:101490003D090E94360958F00E942F0940F029F4B6
:1014A0005F3F29F00C94260951110C9471090C949A
:1014B0002C090E944E0968F39923B1F3552391F347
:1014C000951B550BBB27AA2762177307840738F0B3
:1014D0009F5F5F4F220F331F441FAA1FA9F335D010
:1014E0000E2E3AF0E0E832D091505040E695001CC4
:1014F000CAF72BD0FE2F29D0660F771F881FBB1F7E
:10150000261737074807AB07B0E809F0BB0B802D5B
:10151000BF01FF2793585F4F3AF09E3F510578F087
:101520000C9426090C9471095F3FE4F3983ED4F3C0
:10153000869577956795B795F7959F5FC9F7880F5B
:10154000911D9695879597F90895E1E0660F771FAD
:10155000881FBB1F621773078407BA0720F0621B3E
:10156000730B840BBA0BEE1F88F7E09508950E9469
:10157000BE0A6894B1110C94710908950E9456092D
:1015800088F09F5798F0B92F9927B751B0F0E1F044
:10159000660F771F881F991F1AF0BA95C9F714C0F4
:1015A000B13091F00E947009B1E008950C94700977
:1015B000672F782F8827B85F39F0B93FCCF386952D
:1015C00077956795B395D9F73EF49095809570958A
:1015D00061957F4F8F4F9F4F08950E94950808F4A3
:1015E0008FEF08950E949508880B990B0895F89441
:0215F000FFCF2B
:1015F2001401140100000000F5011501420142022C
:10160200B301510165010D0A006E616E00696E66DB
:10161200006F7666003D3D3D3D3D3D204252414BCF
:10162200494E47204143545541544F52205245415F
:101632004459203D3D3D3D3D3D0053656E6420547F
:10164200617267657420416E67756C6172204469CE
:1016520073706C6163656D656E7420696E205241B2
:101662004449414E53207669612053657269616C29
:10167200204D6F6E69746F722E004578616D706CCB
:10168200653A2053656E6420302E373520666F72BE
:10169200207468652031356D6D20657175697661DC
:1016A2006C656E742E000A2A2A2A204163747561C1
:1016B20074696E6720746F3A200020526164696118
:1016C2006E73202A2A2A0A005461726765743A20CE
:1016D2000020726164207C2043757272656E743AD8
:1016E200200020726164207C204572726F723A2061
:0216F2000000F6
:00000001FF
